:020000041000EA
:1000000000B5324B212058609868022188439860DF
:10001000D860186158612E4B002199600221596106
:100020000121F02299502B49196001219960352056
:1000300000F044F80222904214D00621196600F024
:1000400034F8196E01211966002018661A6600F04E
:100050002CF8196E196E196E052000F02FF8012189
:100060000842F9D1002199601B49196000215960AB
:100070001A491B48016001219960EB211966A021F2
:10008000196600F012F800219960164914480160C1
:100090000121996001BC002800D000471248134993
:1000A000086003C880F30888084703B5996A0420EC
:1000B0000142FBD001200142F8D103BD02B5186610
:1000C0001866FFF7F2FF186E186E02BD00000240BE
:1000D000000000180000070000035F00212200005C
:1000E000F4000018222000A00001001008ED00E03C
:1000F00000000000000000000000000074B24E7A12
:1001000000200420F7010010CB010010CD010010E9
:10011000C9010010C9010010C9010010C901001077
:10012000C9010010C9010010C9010010CF01001061
:10013000C9010010C9010010D1010010D301001045
:10014000C1010010C1010010C1010010C101001067
:10015000C1010010C1010010C1010010C101001057
:10016000C1010010C1010010C1010010C101001047
:10017000C1010010C1010010C1010010C101001037
:10018000C1010010C1010010C1010010C101001027
:10019000C1010010C1010010C1010010C101001017
:1001A000C1010010C1010010C1010010C101001007
:1001B000C1010010C1010010C1010010C1010010F7
:1001C000EFF30580103800BE00BE00BE00BE00BECA
:1001D00000BE00BEF2EB8871144A0510384A0510C3
:1001E0003802001090A31AE71E481F49086006C88D
:1001F00081F3088810471D480068002801D019487D
:10020000F3E70DA40ECC002902D000F012F8F9E7B4
:100210001749184A002000E001C19142FCD116495B
:100220008847164988471649884700BEFDE701C937
:1002300001C29A42FBD37047384A0510E000002003
:1002400068680120C0B106100000042000000420EE
:10025000C0B10610001004200010042000000000AF
:10026000704700000000000008ED00E0000000D032
:100270006868012094510220699B0110C50C001090
:10028000619B0110F8B5C04606480749091A8B1052
:10029000C90FC91810B5491003D0044B002B00D06A
:1002A000984710BD686801206868012000000000C0
:1002B000054B10B5002B03D00449054800E000BFF2
:1002C000FFF7E2FF10BDC04600000000943F02208F
:1002D0009CA9011010B5024814F07CFE10BDC04668
:1002E000A0A9011010B5024814F074FE10BDC0465C
:1002F000C8A9011010B5024814F06CFE10BDC0462C
:10030000F0A90110802310B5154CDB00A544141C86
:100310009A4201D3134B1C1CA4B22200684619F068
:10032000F9FB00236A4669460F48135514F052FE44
:100330000E4B009A9A4207D00D4B009A9A4207D072
:100340000C4814F0C3FD06E00B4B019A9A42F3D11E
:100350000A4814F0BBFD8023DB009D4410BDC0465D
:1003600000FCFFFFFF03000020AA0110707265640B
:1003700072756E0078AA0110696374003CAA0110BE
:1003800070B50500140084B0002A1FD1124814F083
:100390009DFD00232800114A114913F0A1FF0122FD
:1003A000104E114B3100019228000022009413F0EE
:1003B000DBFD0E4B3100029328000B230C4A039403
:1003C0000194009413F01CFC04B070BD11000948A6
:1003D00014F000FEF8E7C046ACAA011005030010B7
:1003E000F5020010BCAA0110E5020010D5020010B1
:1003F000C8AA0110D4AA0110F8B5354B57469A4641
:100400000023DE464E464546834688469946E0B57B
:10041000304F53465E461C682F4BFD18296801CEAD
:1004200019F057FA011C201C19F03CFA1035041C75
:10043000AF42F3D14B4642469B00D05001239C462D
:100440000333E1449C464B46E2440437042BE0D19D
:1004500016685568301C291C19F06AFA002800D16A
:10046000351C43469C68281C211C19F061FA0028A1
:1004700000D12C1C4346DE68201C311C19F058FAB0
:10048000002800D1261C45462F0000241037434683
:1004900001CB311C984619F002FA19F07DFA011CC3
:1004A000201C19F0FFF9041CB845F0D12868311C54
:1004B00019F0F5F919F070FA211C19F0F6F901C5D7
:1004C000BD42F3D1F0BCBB46B246A946A046F8BD3A
:1004D000181200202814002000FEFFFFF0B5574638
:1004E0004E46DE464546E0B585B000AF7A60734AB9
:1004F0008B469446E544EA46E544E846E5446A46C8
:10050000FA608022D2019E18002399465346B860B3
:100510003B606B4BBD68F41800239A462B00250006
:100520005446B2461E00296801CE19F0D2F9011CCA
:10053000201C19F0B7F980239B009C466544041CDD
:10054000AA45F0D14B469A004346985001239C4659
:10055000E14456464B460436802BDAD13B680022F4
:100560009A468023DB019C46BD6B43466544914619
:10057000A846BB605D460024514E4644316801CD1B
:1005800019F0A7F9011C201C19F08CF980239B009D
:100590009C466644041C4645F0D14B46FA689B00D5
:1005A000D05001239C46331DE14498464B46802B96
:1005B000E0D1BB6880269846FB6855469946FB6BA0
:1005C00000249A46B6004B4619594346185919F06B
:1005D00069F95346195919F065F928510434B442A0
:1005E000F1D1AA46802353449B462B000133FF33AD
:1005F000BB60C02300245B005344FB605346185982
:1006000080231B069C46604419F0C6F95B46814670
:10061000185980231B069C46604419F0BDF9BB683D
:10062000061C185919F0F2F9FB6880461859802306
:100630001B069C46604419F0AFF9FE21051C890594
:10064000301C19F02FF9011CFE20800519F02DF93E
:100650007B68195919F03DF9FE21061C89054846A9
:1006600019F020F9011CFE20800519F01EF9414601
:1006700019F02FF9011C301C19F014F97B6C18517A
:1006800019F0C4F9FE21061C8905281C19F00AF985
:10069000011CFE20800519F008F9311C19F019F928
:1006A0003B6C18510434802CA8D1BD4605B0F0BC79
:1006B000BB46B246A946A046F0BDC04600FEFFFFBD
:1006C00000C0FFFFF0B557464E464546DE46E0B552
:1006D00087B000AFBB60674B80269C460368E5444B
:1006E000EB469A46E544644B6D46E544E8460024F3
:1006F00099463961FA60B6004B465046195919F0CF
:10070000E8F8002119F0CEF828510434B442F3D1AE
:1007100080235A4ADB01D6188423DB019946002343
:100720007D60350091447B61554B3E69EC18002398
:100730009A4623005446AA4635001E00316801CD72
:1007400019F0C7F8011C201C19F0ACF880239B009D
:100750009C466644041CB245F0D1554641467B692F
:1007600004359A00013388507B61A945DCD17D684E
:10077000444B8026AA46002499465D46B60043466F
:1007800019595346185919F08DF84B46195919F053
:1007900089F828510434B442F1D1AB4680235B443C
:1007A0003B6180235B005B449A46C02300245B00CE
:1007B0005B447B615B46185980231B069C46604462
:1007C00019F0EAF83B698146185980231B069C46BC
:1007D000604419F0E1F85346061C185919F016F94F
:1007E0007B698046185980231B069C46604419F09B
:1007F000D3F8FE21051C8905301C19F053F8011CA3
:10080000FE20800519F051F8FB68195919F061F8BC
:10081000FE21061C8905484619F044F8011CFE20FB
:10082000800519F042F8414619F053F8011C301CBC
:1008300019F038F83B6C185119F0E8F8FE21061C45
:100840008905281C19F02EF8011CFE20800519F0DE
:100850002CF8311C19F03DF8BB6818510434802C79
:10086000A8D1BD4607B0F0BCBB46B246A946A046DB
:10087000F0BDC04600FEFFFF285A0120281A0120C3
:1008800000C0FFFF28180120F0B5DE464546574658
:100890004E46E0B5724C8022A54400210AA819F00A
:1008A00033F9802200212AA819F02EF978236D4D02
:1008B00098462E006C4C6AAFA0444AAB20002AAA8E
:1008C0000AA90097FFF7FEFE80224AA90AA819F09C
:1008D00021F9802239002AA819F01CF904343000CB
:1008E00080224AA919F016F980364445E5D18022C4
:1008F00000218AA819F008F980220021AAA819F07D
:1009000003F9F0231B019B46584B594C9A46EAAB1E
:100910009846584B27009946574B059454469A469B
:10092000AB44CAAE434603934B460193534628005B
:100930000093AAAA23008AA90296FFF7CFFD80227E
:1009400031008AA819F0E6F880224146AAA819F0D9
:10095000E1F8803538008022310019F0DBF880376B
:100960005D45DFD1FFA8802200212C30059C19F0C5
:10097000CBF8FFA880220021AC3019F0C5F8F02395
:100980001B019A463D4B3E4F994602AB9C463D4B60
:10099000B42698463B00A4254F469946F600ED0044
:1009A000A24466446544434601934B46FFAAFFA90F
:1009B00020000093AC323B002C3103960295FFF7E8
:1009C0008DFDFFA8802229002C3019F0A3F8FFA884
:1009D00080223100AC30803419F09CF8A245E2D17D
:1009E00006AC28002100FFF707FD069D6668291C5C
:1009F000301C18F0A3FF002830D0351C0126A76852
:100A0000281C391C18F094FF002801D002263D1C38
:100A1000E068291C18F092FF002800D0032625006A
:100A200000240121184814F0D5FA184F01CD18F010
:100A3000ADFF02000B0038002100013414F0CAFAA7
:100A4000042CF3D13100124814F0C4FA114B9D4428
:100A5000F0BCBB46B246A946A046F0BD0026CEE794
:100A6000D4F9FFFF486B0120A450022028D80020B1
:100A7000487A012028960020289800202856002037
:100A80002816002028140020FCAA011018AB011021
:100A90002CAB01102C06000070B50025054C237806
:100AA000002B02D0FFF7F0FE2570012001F01CFAA8
:100AB000F5E7C0468A510220F0B5DE464546574666
:100AC0004E46E0B5724C8022A544049105000021F9
:100AD0000AA819F019F8802200212AA819F014F8A0
:100AE000F0236C4E1B0198463400B0446AAF4AAB09
:100AF00028002AAA0AA90097FFF7E4FD80224AA944
:100B00000AA819F007F8802239002AA819F002F87B
:100B1000200080224AA9803418F0FCFF04354445A7
:100B2000E5D1802200218AA818F0EEFF8022002162
:100B3000AAA818F0E9FFF0231B019846564B574C22
:100B40009B46EAAB9946564B25009A46554BA04426
:100B500005945C469B46CAAF4B46039353460193AC
:100B60005B4630000093AAAA23008AA90297FFF7E8
:100B7000B5FC802239008AA818F0CCFF80224946B3
:100B8000AAA818F0C7FF280080223900803518F085
:100B9000C1FF80364545DFD1FFA8802200212C30DF
:100BA000059C18F0B1FFFFA880220021AC3018F09E
:100BB000ABFF3D4B3D4F9A4602AB9C463C4BB426A7
:100BC00099463B00A42557469A46F600ED00664438
:100BD00065444B4601935346FFAAFFA920000093AA
:100BE000AC323B002C3103960295FFF777FCFFA84F
:100BF000802229002C3018F08DFFFFA880223100C0
:100C0000AC30803418F086FFA045E2D106AC280055
:100C10002100FFF7F1FB069D6668291C301C18F0C7
:100C20008DFE002831D0351C0126A768281C391CF0
:100C300018F07EFE002801D002263D1CE068291C29
:100C400018F07CFE002800D003262500002404991B
:100C50001848013114F0BEF9174F01CD18F096FE77
:100C600002000B0038002100013414F0B3F9042C09
:100C7000F3D13100114814F0ADF9114B9D44F0BC93
:100C8000BB46B246A946A046F0BD0026CDE7C04609
:100C9000D4F9FFFF486B012028D80020487A0120B2
:100CA000289600202898002028560020281600208A
:100CB00028140020FCAA011018AB01102CAB011065
:100CC0002C060000F0B5DE4657464E464546E0B5D8
:100CD000EDB014F0ADF85F4818F0AAFF0DF072F90E
:100CE000002800D0BCE20DF00DF95B495B485C4B7D
:100CF0005C4A0DF015F90590002800D0A4E25A488E
:100D000014F0E4F813F0F8FA584D2860002800D1E8
:100D1000AAE229AC2200564B43CB43C243CB43C289
:100D20001B6828A9136053480CF0C8FE0194059C69
:100D3000514A0094514B286828A913F0E5FA504B0A
:100D4000504918009A4600F0C1FB0321022001F02F
:100D500065FE0321080001F061FE2200012102204E
:100D600001F076FE22000121032001F071FE9620A1
:100D7000C00018F0D5FE96238046DB004344424D68
:100D80009946424B06009B462B005D469B46404FD2
:100D900000242959385918F082FD5B46195918F07A
:100DA00084FD30510434782CF3D1783678374E45B1
:100DB000EED1FA205B460001AB461D0001F094F82D
:100DC000B42347465B00434499461C00E137314E4B
:100DD000FF3701CC18F0DAFD02000B00300014F0F0
:100DE000F9F8A742F5D10A2014F026F878224946EE
:100DF00030A818F08FFE032130A8FFF75DFE2648CB
:100E000001F072F8002306930023244AA846239297
:100E1000234A09932492234A0893079318931C9317
:100E20001D9315932293119317931A9319931B9360
:100E3000129313930A93209316930B930F930D938E
:100E40000C93109314930E9321935D4625924EAC10
:100E50001E9366E0990A00105CAB011068AB0110AC
:100E600030750000040040008CAB01108C92012012
:100E700074CB0110BCAB01105B07000081030010B4
:100E8000C8610120A0860100D860012050610120C6
:100E9000285C0120CCAB011010270000D4AB01105E
:100EA000A45002208A5102200133C820069301F089
:100EB0001BF8159B22931D9B15931C9B1D93189B40
:100EC0001C93079B1893089B0793099B08931E9BF1
:100ED00009935B461E930A9B2093139B0A93129BD4
:100EE00013931B9B1293199B1B931A9B1993179B8C
:100EF0001A93119B1793049B11930E9B2193149BA0
:100F00000E93109B14930C9B10930D9B0C930F9BB3
:100F10000D930B9B0F93169B0B934B4616931F9BA6
:100F200005933B2222A98C460127002622ABDA75C5
:100F3000243A6244012368210097504600F0EEFAFB
:100F40000223220068210096504600F0F1FA23881F
:100F500022AADBBA9B463D2322A98C46D3751722D1
:100F60006821624400973C3B504600F0D7FA0223C8
:100F7000220068210096504600F0DAFA3F2322AAA8
:100F800022A98C46D37517223E3B624427886821EC
:100F90000093504600F0C2FA022322006821009616
:100FA000504600F0C5FA584618F0CEFCE2218905FB
:100FB00018F08FFCFFBA8146380018F0C5FCE2211A
:100FC000890518F086FC26880490F6BA300018F0DF
:100FD000BBFCE221890518F07CFC059B83465A1C6A
:100FE00048461F9218F0D2FC060058460F0018F031
:100FF000CDFC02900391049818F0C8FC3B000090CF
:10100000019132000599239813F0E4FF069B092B08
:1010100000DC49E72968219818F041FC434619682B
:1010200018F043FCA96A2060209818F038FC434669
:10103000996A18F03AFC296DA062229818F02FFCEA
:101040004346196D18F031FC696820650E9818F058
:1010500026FC4346596818F028FCE96A60600A9843
:1010600018F01DFC4346D96A18F01FFC696DE06258
:10107000159818F014FC4346596D18F016FCA96831
:101080006065149818F00BFC4346996818F00DFC45
:10109000296BA060139818F002FC4346196B18F0F6
:1010A00004FCA96D20631D9818F0F9FB4346996D67
:1010B00018F0FBFBE968A065109818F0F0FB4346B8
:1010C000D96818F0F2FB696BE060129818F0E7FB42
:1010D0004346596B18F0E9FBE96D60631C9818F002
:1010E000DEFB4346D96D18F0E0FB2969E0650C98FA
:1010F00018F0D5FB4346196918F0D7FBA96B20619E
:101100001B9818F0CCFB4346996B18F0CEFB296E68
:10111000A063189818F0C3FB4346196E18F0C5FB7E
:10112000696920660D9818F0BAFB4346596918F0B2
:10113000BCFBE96B6061199818F0B1FB4346D96BB1
:1011400018F0B3FB696EE063079818F0A8FB4346FC
:10115000596E18F0AAFBA96960660F9818F09FFBFA
:101160004346996918F0A1FB296CA0611A9818F000
:1011700096FB4346196C18F098FBA96E20640898FA
:1011800018F08DFB4346996E18F08FFBE969A06655
:101190000B9818F084FB4346D96918F086FB696CFC
:1011A000E061179818F07BFB4346596C18F07DFB03
:1011B000E96E6064099818F072FB4346D96E18F026
:1011C00074FB296AE066169818F069FB4346196AB1
:1011D00018F06BFB2062A96C119818F060FB434675
:1011E000996C18F062FB296FA0641E9818F057FBE9
:1011F0004346196F18F059FB696A2067484618F092
:101200004EFB4346596A18F050FBE96C6062049843
:1012100018F045FB4346D96C18F047FB696FE06452
:10122000584618F03CFB4346596F18F03EFB7822B5
:1012300060672100249818F06DFC0122259BC820CE
:101240001A7000F051FE34E6094813F03FFE012009
:1012500040426DB0F0BCBB46B246A946A046F0BDC8
:10126000044813F033FEF2E7034813F02FFEEEE7D5
:1012700074AB011040AB0110A0AB0110F0B5DE461D
:1012800057464E464546E0B5070083B00CA801928C
:10129000027800203C689B46E0666160012191462F
:1012A000E166002B34DD5A1E90468022520094469F
:1012B00080264025616F1029FCD00021002801D133
:1012C0003979890240451DD0624611432161A159F7
:1012D000616B0D420BD00120636D40424B463B7168
:1012E00003B0F0BCBB46B246A946A046F0BDA16F14
:1012F0000029ECD02169019B195401308345EDD0C0
:101300003C68D7E74B4601225A4053021943DBE7BA
:101310000020E3E7F0B5DE4657464E464546904688
:101320000022E0B585B01E000EAB1B7807009B467F
:101330000368DA6601325960DA66002E60DD0279F0
:1013400059469202924601224A4052029446802215
:1013500091465A46802403926246BB4600201021E3
:101360004746B446751EA4000192421B1600724205
:101370007241019E5242164002963E5CB04656466D
:10138000424616433200029E16431E61019E5A6B6E
:101390001142FCD04A469A5801969246002A0AD138
:1013A000A84228D00022013092468445DDD1039B1B
:1013B0005F469B4616E05A6D012290465A6B2242C8
:1013C000FCD01A6E42460196002AEBD0039B5F4682
:1013D0009B465346002B15D05346DB0712D4534689
:1013E0001B070FD55B463B7105B0F0BCBB46B24650
:1013F000A946A046F0BD039A002AD3D19046DDE766
:101400000020EFE701204042ECE7C046F8B5DE4699
:1014100057464E4645468346E0B505200C0001F090
:10142000F7FA060060082100801917F0A1FE4300BA
:101430009846804407000521404617F099FE3B1A64
:101440009A461E4B8146700080199C4231D81C4937
:1014500017F08EFE451C5B461C680023E36622687D
:1014600004335A400233134080225201A218136001
:101470005346E3614B462362434601204F2B03D979
:101480005021404617F074FEA023E050E36F39006E
:101490005D400C4B2D042D0CE3181D600123300022
:1014A000E36617F065FEF0BCBB46B246A946A0460F
:1014B000F8BD054917F05CFE451CCCE73F420F0024
:1014C000809698007C10000040787D010F4A70B52E
:1014D000821A531E9A410E4BD20008321A600D4BED
:1014E0000D4C1A60150023689D432B1EFAD166240B
:1014F0000268FF340571D5661460633C8833FF3C95
:10150000D5639563D450FFF781FF70BDD061012092
:1015100000E0004000F0004008C0004010B582B07C
:101520006C46247C0094FFF7F5FE02B010BDC04667
:1015300010B582B06C46247C0094FFF79FFE02B089
:1015400010BDC0468023DB051868000F7047C046F9
:101550000FB400B5084883B013F0B8FC049B002B0F
:1015600007D005A91800019115F0A2F9034813F05E
:10157000ADFC012018F0D8FAF4AB011068C60110D8
:10158000EFF3108072B6034A1368002BFCD0BFF350
:101590005F8F70472C0100D0BFF35F8F0022024B9A
:1015A0001A6080F3108870472C0100D070B5EFF3FB
:1015B000108C72B60D4D2B68002BFCD0BFF35F8FE3
:1015C0000724CB08C618C05C01230C40A3401C00B4
:1015D0000440034207D118433070BFF35F8F2C6083
:1015E0008CF3108870BD1000FFF7B2FF2C0100D003
:1015F000F8B54746CE46884680B5EFF3108C72B6F4
:101600001C4D2C68002CFCD0BFF35F8F9A4222D86F
:1016100007210126894602E00132934218D34D4644
:1016200037001540AF40D4080119045D2742F3D1BB
:1016300010003C430C70BFF35F8F00220D4B1A600B
:101640008CF3108800280EDBC0BCB946B046F8BD4C
:1016500001204042EFE7BFF35F8F00232B608CF344
:101660001088012040424346002BEDD00898FFF738
:101670006FFFC0462C0100D030B5EFF3108C72B66E
:101680000A4C2368002BFCD0BFF35F8F0723012295
:101690000B409A40CD08435D93434355BFF35F8FA2
:1016A000002323608CF3108830BDC0462C0100D08D
:1016B000044A1078431CDBB2172B00D91023137097
:1016C0007047C046D861012010B5064B064C82B069
:1016D0000100009318221F232000FFF789FF02B0AA
:1016E00010BDC04604AC0110809201200021044BC3
:1016F000044ABFF35F8F02C39342FAD17047C046DA
:10170000000100D0800100D00A4B1968EFF310806F
:1017100072B60A68002AFCD0BFF35F8F1B68BFF364
:101720005F8F00221A6080F3108840BF00200021E4
:101730007047C0461C510220F0B5DE4657464E4663
:101740004546E0B587B0EFF30583032201251A4033
:10175000954091008846A946B34B03925C58B34B21
:101760001D60B34B04934B46B24843630823E55EC8
:10177000002D37DAA3881BB2002B00DBADE0A37984
:10178000002B00D0EEE00823E05E002820DB4300C1
:1017900062691B18DB00D3189E68DD68731C00D1DA
:1017A00011E1A44801004144826A0B69B71A9B1AEF
:1017B0009F4215D30123026A039883401A420FD037
:1017C0009C4800F0BBFC8D4202DCCCD18642CAD9D9
:1017D00040BF07B0F0BCBB46B246A946A046F0BD2C
:1017E0000E61EDE762696B0092465B19DB009A447B
:1017F00053469E68DF6800F0A1FC8F42BADC00D13E
:1018000003E1002F00DAE8E05246534652691B69B3
:101810009346049A934200D1D9E052460821605E73
:10182000528800045946104398470090019100994E
:10183000019A0B001000134300D1CEE013000A0000
:10184000B61A9F41002806DB7A4800F077FC009E1C
:10185000019F36184F4153469E60DF6000229A5E1A
:10186000002A00DA86E7530099186069C900411818
:1018700002938B68C9689B46B94200DD7AE702D1C2
:10188000B34200D976E708239C46A44405956546F3
:101890002281A446029B2C0006E053009918C9003F
:1018A00041188D68C968AB469B18DB00C318B94264
:1018B00006DC00D1B3E01C000023E25E002AECDA73
:1018C000230064469C4653461A806346059D1D804E
:1018D000A3881BB2002B00DA51E72269EFF31081D5
:1018E00072B61368002BFCD0BFF35F8F0123A7886B
:1018F0005B42A3803FB22369BFF35F8F00221A606F
:1019000081F31088002F00DA39E723000833220022
:101910009A4666697B00DB19DB00F318996850462C
:101920008C460824115FDD68002910DB029306E075
:10193000AB4244D00023E15E2000002906DB4C00CE
:101940006418E4003419E368AB42F1DD029B0780C0
:1019500000201F5E1980002FDCDA1400A379002B11
:1019600000D110E70023A37126000823E15E0836AA
:101970004B1C00D12CE70800A246656902E03E003E
:101980004B1C1AD04B005B18DB00EF180A008C468A
:10199000E95E7B881BB2002BF1DA01235B42DC1786
:1019A000BB60FC60824205D0534631801B893B807E
:1019B00053461A8160464B1CE4D15446E5E6A368C1
:1019C0006345B7D9C2E76B1C00D0EAE6F8E65B4690
:1019D00058461B69984700281BD153461B8822692B
:1019E0002381EFF3108372B611680029FCD0BFF396
:1019F0005F8F514662880A8022696580BFF35F8FDE
:101A00000021116083F31088B4E6864200D8F8E61E
:101A1000B0E65B461A685B680092019307E7B3453E
:101A200000D848E74CE7C046B43F02203C70054070
:101A3000391700100040054070B52E4C2569002D67
:101A400004D00A212C4800F091FE70BD2B4E0321DA
:101A5000300000F051FBE660FFF72AFE284B03221E
:101A60009C46D02322701B061B6801216370254B06
:101A70006044A3600F2380002061022063806369BB
:101A80004942A18019800231198647311D8358527D
:101A900018315A5275325C399952183201319952C3
:101AA00018320131995218320131995208351832E1
:101AB0009D5202311832995218320131995218321E
:101AC000013199521832013199521832013199522B
:101AD0001832013199520C4B0C49DC6001303562EF
:101AE00000F098FB0121032000F05CFB084B1D6017
:101AF000A7E7C046DC6101201C51022000400540E0
:101B000040000034FFFF1000B43F022039170010DE
:101B10003860054000487047DC610120F8B50500D9
:101B200018200F0017F098FF041E3ED0182138002F
:101B300017F0B0FF01216061280000F0EFFAE560C6
:101B40000600FFF7B5FDD022267012061268184B6A
:101B500062709C460122BBB25242604480006381A5
:101B60009B1820612281A2806380002F0BD0790016
:101B70006269C919C9000F4B8918138001331832E3
:101B80009BB28A42F9D10127B7400B4BB20030001B
:101B90000A492F62D45000F03DFB0121300000F0D3
:101BA00001FB074B9C4665442F602000F8BDC046F2
:101BB00040000034FFFF0000B43F0220391700103E
:101BC00038200000124B70B5040098421ED001234B
:101BD0000578C668AB400F4A3362B2181360012122
:101BE000280000F0DFFA28000B4900F037FC29003C
:101BF000300000F08BFA00212278084B60699200D7
:101C0000D15017F069FF200017F066FF70BDC04685
:101C1000DC6101203830000039170010B43F022089
:101C2000F8B51F0008AB1B7804001600002B08D184
:101C300000F08CFA32003B00121A8B41002B00DAC4
:101C400052E02269EFF3108072B61368002BFCD0CB
:101C5000BFF35F8F0223E15E63694A005218D2002E
:101C60009B182269002936DB1D886580BFF35F8FD2
:101C70000025156080F31088069A9E60DF601A6167
:101C8000079A5A615A8801325204520C101C002AD9
:101C90001FD082B25880080410432669EFF31087E2
:101CA00072B63268002AFCD0BFF35F8FA2881A8018
:101CB000A1802369BFF35F8F00221A6087F3108829
:101CC0000A4923788C4601329A40E36863441A60DB
:101CD000F8BD0120DDE7BFF35F8F0023136080F3C1
:101CE000108801204042F3E70020F1E73C2000008B
:101CF00070B501000469EFF3108C72B620680028FB
:101D0000FCD0BFF35F8F02200D5E4C696800401964
:101D1000C00024180869002D36DB26884E80BFF3EA
:101D20005F8F002606608CF31088E3606388049858
:101D3000013320615B0405985B0CA26060611A1C92
:101D4000002B1FD093B22804628018430A69EFF376
:101D5000108C72B61368002BFCD0BFF35F8F8B889A
:101D600023808D800B69BFF35F8F00221A608CF394
:101D700010880B7801329A40CB6808498C4663443E
:101D80001A6070BD0122DDE7BFF35F8F002303609F
:101D90008CF3108801204042F3E7C0463C2000004D
:101DA00010B543890A1493421ADD53009B18426907
:101DB000DB00D3180469EFF3108C72B62268002A96
:101DC000FCD0BFF35F8F5A88090494B2090C8A4291
:101DD00008D00369BFF35F8F00221A608CF310886C
:101DE000002010BD8022120214435C80012302698E
:101DF0008371BFF35F8F002111608CF31088044959
:101E000002788C469340C268012062441360E8E780
:101E10003C20000040787047F0B506000F00062413
:101E20006442E517C646A4197D4100B582B08D42D3
:101E300014D811D000F08AF922002B00121A8B411D
:101E4000002B15DC002B44D03000390000F088F95D
:101E500002B080BCB846F0BD8442EBD90024002516
:101E600000F074F922002B00121A8B41002BE9DDDF
:101E700000F06CF922002B00121A8B41002B0ADBB8
:101E800000230193144B2200009314482B00FFF70A
:101E90002FFF0130D8D0A04629000024104A114855
:101EA000536A994204D8956A4545CDD29942CBD11F
:101EB0000568EFF3108C72B62B68002BFCD0BFF3D3
:101EC0005F8F0368BFF35F8F1C608CF3108820BFA7
:101ED000E6E7002AB8D0CBE709170010DC61012043
:101EE000004005401C510220F0B5C64600B582B046
:101EF000040000F02BF9FA2206000F002000002356
:101F00000021920017F0AEFC8019794104000D1EEB
:101F100002DA01242E4D644206267642F71736195E
:101F20006F41AF4214D811D000F010F932003B00DD
:101F3000121A8B41002B15DC002B46D02000290003
:101F400000F00EF902B080BCB846F0BDA642EBD955
:101F50000026002700F0FAF832003B00121A8B41ED
:101F6000002BE9DD00F0F2F832003B00121A8B4141
:101F7000002B0ADB00230193164B32000093164816
:101F80003B00FFF7B5FE0130D8D000233900B04642
:101F90009C46124A1248536A994204D8966A4645AA
:101FA000CCD29942CAD10668EFF3108772B6336873
:101FB000002BFCD0BFF35F8F0368BFF35F8F6646D3
:101FC0001E6087F3108820BFE5E7002AB6D0C9E776
:101FD000FFFFFF7F09170010DC6101200040054072
:101FE0001C510220F0B557464E46DE464546E0B548
:101FF00006000F0085B0EFF3058399468B46002B52
:1020000012D0384900204B6ABB4206D38A6ADB1BD8
:10201000591E8B41B2424041184305B0F0BCBB464B
:10202000B246A946A046F0BD2F4B9A46DB689846BB
:1020300053461B784046039300F080F84246039BCA
:10204000040004339B009B580D001B1A390030001C
:10205000001BA941894510DC0DD020BF214A00207A
:10206000536A5B45D9D3926ADB1B591E8B41B2423E
:1020700040411843D1E78342EFD900F067F83200BE
:102080003B00121A8B41002B1ADB00230193174BE4
:102090003200009350463B00FFF72AFE011E0FDD81
:1020A000104B5A6A5A451BD39B6AB34216D350460B
:1020B000FFF776FE0B4A0020536A5B45ADD3D2E7AB
:1020C000084A0020536A5B45A7D30020926ADB1BB5
:1020D000B24240415A1E934118439EE75A45E6D109
:1020E00020BFE4E700400540DC6101200917001033
:1020F000004870470040054010B5024A0248FFF70B
:1021000055FA10BD20AC01108492012010B5024890
:10211000FFF7B2FA10BDC0468492012000B5054B0E
:1021200083B00093002203230348FFF761FA03B052
:1021300000BDC04644AC0110849201200300416AF6
:102140000A00986A596A8A42FAD17047034B596A61
:102150000A00986A596A9142FAD1704700400540D6
:10216000064A536A9942FCD807D1044B02E05A6AE6
:10217000914202D19A6A9042F9D8704700400540D6
:10218000054B064A1360064A136053609360D360A0
:1021900013615361936170478080808000E400E0A8
:1021A00004E400E01F2318401E3B8340002905D0B3
:1021B000C021044A490053501360704780220149EE
:1021C0008B50FAE700E100E001228240034B1B68DC
:1021D00013405A1E9341D8B27047C04600E100E058
:1021E00001238340014A13607047C04600E200E0CB
:1021F000064B10309B688000C358054A00209B1A8C
:102200002F229A424041C0B27047C04600ED00E024
:10221000F461012070B50D00EFF3108672B60F4A1D
:102220001368002BFCD0BFF35F8F0D4B10309B6801
:1022300084001B590B4A934203D09D4201D016F0F3
:102240002BFE074B9B681D51BFF35F8FBFF35F8F62
:102250000022024B1A6086F3108870BD240100D062
:1022600000ED00E0C1010010F0B557464E46DE46D5
:102270004546E0B585B0060000911700EFF3108BDE
:1022800072B66A4A1368002BFCD0BFF35F8F00253B
:10229000674B5D579A46002D00DAA9E06B00654C4C
:1022A00001935B199B009846A146C1444B46524698
:1022B0009B7910361370604BB6009B6899590B1BC5
:1022C0002F2B33D95D4B994200D0ACE0019B4246A5
:1022D0009C465B4B6544AD0063535A4B0232A218D7
:1022E000043B9B1A1B05584A5B0D651913436B8011
:1022F000564B0121AB80FF23AB71009BEF71AB60AC
:102300004B460B4319004C4B9B689951BFF35F8FB1
:10231000BFF35F8F0022454B1A608BF3108805B026
:10232000F0BCBB46B246A946A046F0BD01200A005B
:102330008243D3798C46BB4231D845461300444989
:102340001B1B5B415943090D3D4B63533D4B02350C
:102350006519043B5B1B1B053B4D5B0D2B43AA46DC
:102360004D466B800425AC465546E044131F44445B
:102370001B1B1B055B0D1D434B46997100999D80EE
:1023800099604946DF71334B01431360BBE7580046
:10239000C01880002018C179B9422FD90200062345
:1023A000D356002BF3DA02932B4B61460393131D94
:1023B0009A4604235B429C46E14450464B461B1A16
:1023C0001B055B0D9C46204B957198466346404625
:1023D00003439380019B5A199200039BA418A38086
:1023E000029B1C4AA371009B2260E771A3608AE7ED
:1023F00016F052FD002553465D574FE79088029333
:102400004005131D9A46031561469C464046D44438
:10241000634604302018181AE0230005400D1B0203
:1024200018430390C5E716F037FD4FE7240100D0AD
:1024300084510220F461012000ED00E0C101001090
:1024400000A1FFFF2462012000E0FFFF01BDFFFFAC
:10245000AAAA00000148804701BD0000F0B5DE4691
:1024600057464E464546E0B50C0083B0EFF3108862
:1024700072B6634A1368002BFCD0BFF35F8F614BC9
:1024800061499A68030010339F00D55901938D422A
:1024900043D0A54254D05D4EAA1B2F2A3DD85C4B99
:1024A0009B461B68994601231A009C4682404B4676
:1024B00013401F2299466346024093409A46802269
:1024C0005B4650469850BFF35F8FEFF305839B4602
:1024D000002B37D0019B5B4501D016F0DDFC0123BA
:1024E0002A009A439068844208D176E04B005B183A
:1024F0009B00F3189868844236D01A000621515682
:102500000029F3DA844254D04B46002B27D0C02256
:1025100051463F4B5200995019603A4B9B68DD5130
:10252000BFF35F8FBFF35F8F0022354B1A6088F3D4
:10253000108803B0F0BCBB46B246A946A046F0BD29
:102540000D00EAE72A0063469A4390688442D5D199
:1025500006201056130000280ADA0D0031E080230F
:1025600051462B4AD150D8E706201856002821DBC7
:1025700042001118890074188B46A1689960E179AE
:10258000D971062161569971002924DBA488F11ABA
:10259000640524155C44091909051E4C490D2143A5
:1025A000998013181C4A9B001178F31899711070C8
:1025B000AAE713005946002914D1FF319171174938
:1025C000918015490A789A71154A9B1B5B415A43C1
:1025D000120D0A7098E71149E2E706201056130021
:1025E0000028C5DA0F4A1049D21A083A5002400DA5
:1025F000014399800D4952080A43DA8084E7C046B6
:10260000240100D000ED00E0C1010010F4610120C0
:1026100000E100E000E0FFFF8451022001BDFFFF68
:10262000AAAA00002E62012000F0FFFF00F8FFFFC1
:1026300010B58308040003202040FF24054AC00091
:102640009446844081409B0063441A68A2430A4335
:102650001A6010BD00E400E070B501240443EFF3FC
:102660000581EFF3108C72B6214A1368002BFCD061
:10267000BFF35F8F1F4B05001F4AED1A6D416A4380
:10268000120D1E4D8900AE6852B27658A6421CD07B
:102690000621595691421CD012215956914222D0FE
:1026A0001E215956914220D02A2159560324914285
:1026B00010D0134B19781A708171BFF35F8F00220D
:1026C0000B4B1A608CF3108870BDAB680D4C5C50DE
:1026D000EFE700246100091989005B18FF21997157
:1026E00009499980E5E70124F4E70224F2E7C046AE
:1026F000240100D0F4610120AAAA000000ED00E04E
:1027000084510220C101001001BDFFFF1F2110B53F
:10271000091A0248FEF7B0FF10BDC04690510220D2
:1027200010B5084B084C82B001000093002205232D
:102730002000FEF75DFF002801DB1F23181A02B0FE
:1027400010BDC04658AC01109051022070B5040075
:102750000E001500FEF7ACFF0100200000F006F8A7
:10276000A680E580BFF35F8F70BDC046024B9C46DC
:1027700061448900016070474000003470B5114C1D
:10278000114DAC420FD2FF262368002B0CD0FEF770
:102790008FFF01002000FFF7E9FFA680BFF35F8FE6
:1027A0000834AC42F0D370BDFEF782FF0100200078
:1027B000FFF7DCFF2671BFF35F8F0834AC42E3D331
:1027C000F1E7C046586801206868012010B5040090
:1027D000FEF76EFF01002000FFF7C8FFFF23237103
:1027E000BFF35F8F10BDC04610B50400FEF760FF59
:1027F00001002000FFF7BAFFFF23A380BFF35F8F24
:1028000010BDC04610B504000120FEF75DFF034B6C
:10281000C3189B002360BFF35F8F10BD40000034DE
:10282000034B9C46614489000160BFF35F8F704792
:1028300040000034F8B5DE464E4657464546E0B502
:102840008B4605000A991800160016F091FC0A9BA9
:102850006C001F02324B64199C46A40064446368F8
:1028600081469F4200D967602B1FDBB29846012B3F
:1028700030D9C02380229B01E31812011A60294B32
:10288000AD0059599A4600291BD17301E0262268F0
:1028900053401E40802342465B01E3181E60012A1C
:1028A00030D9802380229B01E31812011A6053461D
:1028B0004A4667605A51F0BCBB46B246A946A0469C
:1028C000F8BD586916F054FC013043001B18033B57
:1028D000FDD2DAE75B46012BCBD1C02303229B015B
:1028E000E3181A60023AA3681A42FCD07301E0268A
:1028F0002268AD0053401E4080230A4A5B01924685
:10290000E3181E605A462168514003220A401A60AB
:1029100001225B469A40A3681A42FCD0C1E7C04638
:102920000080004090920120F0B546464F46D646C2
:10293000C0B51F00344B44009C462418A4006444D6
:10294000636888461600FF2B02D880235B00636013
:10295000031FDBB29A46012B30D9C02380229B0192
:10296000E31812011A60294B85005959994600292C
:102970001BD17301E026226853401E40802352463B
:102980005B01E3181E60012A30D9802380229B015D
:10299000E31812011A6080235B0063604B465F51AD
:1029A000E0BCBA46B146A846F0BD586916F0E0FB57
:1029B000013043001B18033BFDD2DAE74346012BED
:1029C000CBD1C02303229B01E3181A60023AA3680B
:1029D0001A42FCD07301E0262268850053401E4055
:1029E00080230A4A5B019146E3181E604246216833
:1029F000514003220A401A60012342469340A268D4
:102A00001342FCD0C1E7C0460080004090920120F4
:102A1000014B8000C058704790920120094A830002
:102A20009A1810B514684022544080322240064C57
:102A3000C000A44663441A60044B9C466044416055
:102A400010BDC04604C0014004D001400040014018
:102A5000074B8000C3181B68C90092000A435A4004
:102A60000C231340034A9446604403607047C046F9
:102A700004C0014004D001408000002905D0064B6D
:102A80009C460223604403607047044B9C4602232B
:102A900060440360F8E7C04604E0014004F00140F0
:102AA000D0231B061B6830B50500584243412F2038
:102AB0005B4283430E48EC08844607202840800090
:102AC000814020000B4D3C3063448000A400415104
:102AD0001B19002A05D08022920194466344196094
:102AE00030BDC0229201944663441960F8E7C046A5
:102AF0003041014000400140D023F0B5C6461B06DE
:102B000098461B680C4F9B001600FA5804000D00F5
:102B100000B5104209D1290014430D203200FC50A9
:102B2000FFF7A2FB80BCB846F0BD16F0B5F94346EE
:102B30001B689B00FA58EEE7804F022010B5040096
:102B40000D20FFF78BFCD0231B061B6802499B005E
:102B50005A58A2435A5010BD804F02200123D02260
:102B60008340120693629361094A83009A181168A0
:102B70004022514080320A400649C0008C466344DE
:102B80001A60054B9C460523604443607047C0466D
:102B900004C0014004D0014000400140F8B50400E9
:102BA00021481E0017000D0016F0E2FA010038005F
:102BB00016F0DEFA069B36041B031E432368002B27
:102BC00020DB1A4B1A49E3185A1E934180229201C6
:102BD00094465B421B0B174A1B0363441360164A5F
:102BE00013601F000A689743FBD1144B2560E2185D
:102BF0002123A06013602368002BFCDA0823E66021
:102C00001360F8BD3F2322681340AB42D9D1A368BB
:102C10001B051B0D8342D4D1EE22E368D202134080
:102C2000B342CED1EDE7C046001BB7000040FDBF68
:102C300008C0004000E0004000F000400430000008
:102C400010B580241C4BE4051C6000281AD0012319
:102C50001A4C18431A4BDC611A4C44401C625962EE
:102C600098628021144BC9051960174817490860FC
:102C7000E021C9041960002A07D18022144B1206F2
:102C80001A6010BD0E4BD861EBE753019B1A9B00F5
:102C90009A18802312015B049A4209D213000D494D
:102CA0000B60074B5A608022094BD2051A60E8E797
:102CB000094B1A00F3E7C04600B00540D3C007B087
:102CC000008005402D3FF84FFCFF01000820014027
:102CD00000A0054084A50120FFFFFF008023024AD9
:102CE0009B000B43D362704700800540002310B562
:102CF0000100988A1B8B984710BDC046162310B55B
:102D00000100188802331B88984710BDF8B5474664
:102D1000CE4680B50F1E18D0142399460433040004
:102D20000025012698464B461888434621681B8893
:102D3000984701C4431E984101350640AF42F2D185
:102D40003000C0BCB946B046F8BD0126F8E7C04621
:102D5000002370B504000D00988A05491B8B984725
:102D600003000020002C01DB0130A040290098471F
:102D700055420000AA23064A1B0113608D235B0005
:102D8000D3600449044B19605368002BFCDA704788
:102D90000040024000B0FA000060024010B506F0AA
:102DA0003DFF10BDF8B501230B72040006F06AFF69
:102DB0000500431C0BD10F4B186859680E4B226855
:102DC0009860D9601900200052699047F8BDFFF75C
:102DD000BDF9FA2206000F0000232800002192000E
:102DE00016F040FD801979410029E7DA01200349F6
:102DF0004042E3E790CB011040620120FFFFFF7FDC
:102E000070B5094D04002B78002B08D00123074929
:102E100020000B722368DB699847012070BD00F029
:102E2000DBFC01232B70F1E7815102205862012065
:102E300010B50400036804499B6998472368200083
:102E400002491B6A984710BD406201205862012068
:102E5000002070477047C04610B5FFF777F900298A
:102E600005D0FA220023920016F0C0F910BDFA2115
:102E7000890016F07DF9F9E78368002B04D107E09B
:102E80001A68002A06D013008B42F9D1002005E011
:102E9000030008331960002301200B607047C0460F
:102EA000020083680832002B04D109E01A001B6875
:102EB000002B05D08B42F9D11B680120136000E084
:102EC000002070474368002B04D107E01A68002AED
:102ED00005D013008B42F9D1002004E0031D1960D6
:102EE000002301200B6070474368021D002B04D1B2
:102EF00009E01A001B68002B05D08B42F9D11B6832
:102F00000120136000E000207047C046F0B557462E
:102F1000DE464646C0B53E4B82B01A685B680092FA
:102F2000019383688246002B2CD0082353449B4690
:102F3000FFF70CF953469B6804000D005F46002B19
:102F400020D000221E0094469846B268F368200004
:102F50002900801A9941002902DB14001D00BC469B
:102F600037003668002EF0D162464346002A48D02A
:102F7000116850460B6813604B68984753469B682E
:102F8000002BD5D153465C68002C29D0002556462D
:102F9000237A002B31D021006368257230009847D6
:102FA0002468002CF4D1B168B246002918D0009CE6
:102FB000019D0E0003E004000D00002E0ED0330032
:102FC00022009868D9682B00121A8B413668002BB2
:102FD000F1DCF2D1002AEED1002EF0D1009401955F
:102FE000009B019C5246180021001361546102B0FD
:102FF000E0BCBB46B246A846F0BD2468002CC7D151
:10300000D1E7190053465C68002CBFD1CFE7C0461A
:1030100090CB0110F0B5C646804600B5FFF796F894
:1030200043469B6804000D00002B0AD09E68DF68B1
:1030300021002A00891BBA41002A10DA1B68002BE4
:10304000F4D143465B68002B03D10AE01B68002BD8
:1030500002D0187A0028F9D080BCB846F0BD012013
:10306000FAE70020F8E7C04670B50F4C0F4D104A44
:1030700024184D41A900A00F0843A90F69400D4B2A
:10308000604016F0EFFB4A01C30E1343CA0E5840CE
:103090005140094B094A16F0E5FB4A00C30F1343A0
:1030A000CA0F5840514070BD157C4A7FB979379E90
:1030B000B9E5E41C6D4758BFBB49D094EB113113FF
:1030C000F0B504684568060023002A00C6468068FB
:1030D000F16803430A4300B5134304D1FFF736F800
:1030E00003000B43FAD023062A0A60402F061A4336
:1030F000230A3B43070CBC4669404B409846634655
:103100000F041F43424003045A4043467B40326051
:103110007360C20E4B011343C90E40010843B360F4
:10312000A10FAB000B43A20012196B41F060D1015B
:10313000580E520EDB0108431A4304001500430FDA
:10314000D1001943C0000019694180BCB846F0BDE8
:10315000F0B5DE4657464E464546E0B5AD4C97B015
:1031600005942478002C00D1D5E00EAB0D93AA4B2A
:10317000AA4F0293AA4BAB4D9B465B461E685C6808
:103180009B680B935B46DB680C93A74B05931B78FE
:10319000DBB20693FEF7DAFFFFF766FFA34B704042
:1031A0009B69614008900A91DB0433D5A04BDA6B30
:1031B000E0231340402B2DD0EFF3058399469D4B20
:1031C0003E68984600239A462B004D467C689946F7
:1031D00030002100002D1AD0FEF7C2FFEFF310825D
:1031E00072B643461B68002BFBD0BFF35F8F3B6872
:1031F000B34212D0BFF35F8F43465146196082F34A
:1032000010883E687C6830002100002DE4D1FEF774
:1032100003FEE3E715F040FECEE77B68A342E9D169
:10322000824B1400DE69FEF791FF0A22002380180A
:1032300059414D4602000B1E02DA01227E4B5242DA
:103240000CC72A686B6810001900012780185941C3
:10325000374007430022009001912F606960BFF35F
:103260005F8F744B1A6084F310887449029B8C46FC
:103270001B787349DB0063449868884249D0002179
:10328000FFF7F2FE089D0A9C45404C40EFF3108684
:1032900072B6684A1368002BFCD038000199FFF71A
:1032A000E3FE0B9B58400C9B5940BFF35F8F059B7F
:1032B000069A1B78934208D05B460CCB5C405B4679
:1032C00055409A68DB68504059405F460D9B0E950B
:1032D0005C609860D9601800FFF7F2FE109A119BAD
:1032E0000E9C0F9DBA60FB60059A3C607D60137870
:1032F0000133DBB21370BFF35F8F00224D4B1A60B6
:1033000086F3108817B0F0BCBB46B246A946A0466B
:10331000F0BD9A60B3E74B4B009001919C464A4B3D
:103320004A4C9846A14665682468A10DAB02A202EA
:103330000B43100019000019694102900391029992
:103340000027890E8A460399890101915146019807
:103350000843029901908901009100980199001B8E
:10336000A9410D006146040040C98C46A4197D4165
:103370004145DAD14B461C605D600EAB18000694E7
:1033800007950D9300F02EF90E9B0F9C089309945E
:10339000264B9B69DB0400D4FAE0254BDA6BE02373
:1033A0001340402B00D1F3E0EFF305839A4640230E
:1033B00000249B460023009301941E4B5C469846D4
:1033C000164F0023994653463D687E68A246280062
:1033D0001C003100002C1AD0FEF7C2FEEFF3108261
:1033E00072B643461B68002BFBD0BFF35F8F3B6870
:1033F000AB422DD0BFF35F8F43464946196082F33D
:1034000010883D687E6828003100002CE4D1FEF76A
:1034100003FDE3E78C5102207E510220406A012027
:10342000D0000020C00000207F5102200000064094
:1034300000800040300100D0FFFFFF7F000003400C
:10344000FFFFFF00001C042000200420C800002013
:103450007B68B342CED12300160054469A46009AA8
:10346000019B1000190080185941504BDA69012363
:103470001340034300930191FEF768FE0A220023E4
:103480008018594102000B1E02DA0122484B5242B9
:103490003A607B60012C66D1464DA346009B019C9F
:1034A0002B606C60BFF35F8F0023434C236086F377
:1034B0001088FEF74BFE80468946EFF3108672B601
:1034C0002368002BFCD0BFF35F8F059B1B78002B7C
:1034D00052D13A4BDA681F2A5DD05A691F2A5CD054
:1034E000DA691F2A5FD05B6A1F2B59D015F0D4FC14
:1034F000FF23FF223249DB000A70324A02919446D0
:1035000000980199052263445A60FFF7ADFD824699
:103510000C0006980799FFF7A7FD534661405840F5
:103520001290139140464946FFF79EFD80460C00DD
:1035300008980999FFF798FD434658406140149058
:1035400012A81591FFF7BCFD149815991E4B9B46C8
:10355000129A139B5C46226063600123059AA06067
:10356000E16013700CE0BFF35F8F002342461360ED
:1035700086F31088013C24E7114B0293124B9B46C3
:10358000BFF35F8F00220C4B1A6086F31088F4E5BE
:1035900015F082FC08E700239B465B46DAB2A9E7F8
:1035A0001C3B9B46F9E702239B46F6E700000640DA
:1035B000FFFFFF7FC0000020300100D0000003406B
:1035C0007E51022008000340D000002010B5FFF714
:1035D000BFFD10BD10B5024800F0E0F810BDC046B8
:1035E000944F022010B50822014916F093FA10BD3D
:1035F000944F022030B54B1E012900D1A7E0664A46
:1036000011780D092C0030349F2900D9A2E00470F4
:10361000012B00D1BEE00F21147821400C00303482
:10362000092900D998E04470022B00D1B2E0547807
:103630002509290030319F2C00D990E08170032B9F
:1036400000D1A7E00F2121400C003034092900D916
:1036500087E0C470042B00D19CE0947825092900F0
:1036600030319F2C00D97FE00171052B00D191E012
:103670000F2121400C003034092900D976E0447133
:10368000062B00D186E0D4782509290030319F2C03
:1036900000D96EE08171072B00D17BE00F21214022
:1036A0000C003034092966D8C471082B00D171E0B0
:1036B00014792509290030319F2C5FD80172092B1C
:1036C00068D00F2121400C003034092958D84472A9
:1036D0000A2B5FD054792509290030319F2C52D80C
:1036E00081720B2B56D00F2121400C003034092958
:1036F0004BD8C4720C2B4DD0947925092900303158
:103700009F2C00D9073101730D2B43D00F2121408D
:103710000C003034092901D937310C0044730E2BC9
:1037200038D0D1790C09220030329F2900D90732D4
:1037300082730F2B2ED00F220A4011003731092A35
:1037400001D830321100C173102B23D01030002368
:10375000037030BD07345AE737310C0063E7073197
:103760006CE737310C0074E707317DE737310C0027
:1037700085E707318EE737310C0095E707319DE784
:1037800037310C00A3E70731AAE737310C00C472C8
:103790000C2BB1D1C018DAE7944F022010B588B0D5
:1037A00004000D220021684616F0AEF90D2200211A
:1037B00004A816F0A9F94B236A466846137004A9B9
:1037C0000D2217F039F8152108222000694416F05F
:1037D000A1F908B010BDC04610B501F0EBFC00F037
:1037E0005DFB00F045FD00F0F1FD06F05FFA01F031
:1037F0006FFD00F085F906F07BF910BD40BA80B28C
:103800007047C04600BA7047F0B5C646584D040030
:103810002B68884600B5002B03D02A7A824200D15B
:1038200079E0544E2701EB68002B02D02A7DA2429A
:1038300067D0AB69002B03D02022AA5CA24256D0ED
:103840006B6A002B03D02C22AA5CA24229D03B1920
:103850001B01F318DB7B002C32D0B27A022A65D030
:10386000012C32D08D225200B25C022A62D0022C8E
:103870002FD0414AB25C022A00D16EE0032B0DD852
:103880003E4D9B00585906F07BFD00223F193F0139
:10389000F719FB7B9B005A510423FB7380BCB8468D
:1038A000F0BD3819000110304146AA6A3018984717
:1038B00000236B623B191B01F318DB7B002CCCD17E
:1038C0008D225200B25C022A4CD02B4AB25C022AF2
:1038D0003ED02B4AB25C022AD0D12A4AB25C9A422C
:1038E000CCD104223B191B01F318DA73D6E738193F
:1038F000000110304146EA69301898470023AB6157
:103900009EE738190001103041462A69301898475F
:103910000023EB608DE707013818164E00011030C8
:103920006A683018984700232B607CE7F27B9A4244
:1039300096D1D6E72022FF32B25C9A42D1D0022C37
:10394000C7D00D4AB25C022A07D0032CC1D195E73B
:103950000D4AB25C9A42BCD1C3E70B4AB25C9A42B0
:10396000F3D1BEE72022FF32B25C9A42E9D1B8E738
:10397000C89C0120009D01202A020000B89C012063
:103980003A0300003F0300002F020000564BF0B541
:103990004546DE46574698464E460301E0B59B46EF
:1039A0001D1843462D015C19E37A070089B0012BED
:1039B00000D996E04D4A9B00D6580192002E00D1C6
:1039C00085E010354544280016F0ACFDA0221230E9
:1039D00081B29200362000F021FF8146002869D094
:1039E00005AE0C220021300016F08EF82089FFF77A
:1039F00005FF01233080B3703100FF330C224846AD
:103A0000B38001F033FA3A4B0C269A464346013D07
:103A1000029703936A786F1C3B0000242E2A07D17B
:103A20005AE05A780134E4B2591C2E2A49D00B00CE
:103A3000002AF6D1DA1B92B290461D002200B2187D
:103A4000524534DC22003100484601F0D3FA731CA1
:103A50009BB2A41942463900484601F043FAA4B289
:103A60002B78661CB6B2002BD4D1039B0022310008
:103A700048469846029F01F0BDFA1E4B02340422CC
:103A8000049304A9A3B2484601F02CFA3B00019923
:103A90005B448C461B014344DA7ADB7B16499B006E
:103AA0009200585862443523494606F0F9FB4846CF
:103AB00001F00CF809B0F0BCBB46B246A946A046DE
:103AC000F0BD5B1B9BB2984622000D00B7E70021BA
:103AD000FFF79AFEA672EDE700233D00002298460C
:103AE000ADE70648FDF734FD009D0120F89C01205C
:103AF000FEFF000000010001B89C012074AC011021
:103B00007047C046012800D97047054B8000002946
:103B100002D00A68C250F7E7024A1268C250F3E7BF
:103B2000F89C0120A0CE0110F8B54746CE46454E80
:103B3000454B80B58D273400002598467F00A37A39
:103B4000022B32D029D8002B1DD0404B9946FFF7CD
:103B50003DFDB37A80B2022B3FD0F35D022B42D001
:103B60004346F35C022B47D04B46F35C022B4CD010
:103B700002230122A37200232081E3722800227312
:103B80006373FFF703FF01351134EDB2FF34042DE9
:103B9000D5D1C0BCB946B046F8BD032B4ED1236881
:103BA000002B13D10023A372EDE7237B013BDBB293
:103BB0002373002BE7D1637B0133DBB26373042BE8
:103BC00029D023732800FFF7E1FEDCE7013B2360E7
:103BD000002BD8D10023A372D5E733898342B6D016
:103BE000F35D022BBCD11733FF33F35A8342AED0BF
:103BF0004346F35C022BB7D18A239B00F35A8342DE
:103C0000A5D04B46F35C022BB2D1CE239B00F35AD6
:103C10008342ADD19BE7E37A002B08D10C4A52686E
:103C2000002A04D001226373E2722273CAE70021E2
:103C30002800FFF7E9FD0023A372A4E70548FDF77C
:103C400087FCC046009D01202A0200003A030000C4
:103C5000F89C01208CAC01100123F0B51E0000255A
:103C60000640184205D0002951DD057801392D02A2
:103C7000013003221300034010424FD1072963DDB6
:103C80000822524294468C4467460F329743020002
:103C900004000832BF1822689A189A429B415B427E
:103CA000D21863680834D3189342924152429B1849
:103CB000BC42F0D1CA086146013AD2008018891A84
:103CC0001A040830120C1B0C9B18012910DD028805
:103CD0009B18032905DD42889B18052901DD828890
:103CE0009B184A08013A520002398018891A02309A
:103CF000012919D0EB181A0C1B041B0CD318180C33
:103D00001B041B0CC018002E02D180B2F0BD002095
:103D1000030600041B0C000E1843F6E7012911DD11
:103D2000038802390230A9E7FF2102788D43154349
:103D3000ED182B0C2D042D0C5B19180C1B041B0CFF
:103D4000C018E0E70023D3E71A00BCE7F8B55746F0
:103D50004E46DE464546E0B591460A9A8A461168C7
:103D60001B680A04120C090C52181904090C521889
:103D70001B0C9B181A0C1B041B0CD3181F0C1B04C8
:103D80001B0C0400FF18002825D000239B46FF339E
:103D900001269846658960682900FFF75DFFC01914
:103DA000070C0004000C3F182E4209D05B46414628
:103DB00073403A069B463B0A120C0B401A4317000D
:103DC0002468002CE6D15B46002B04D03A063F0461
:103DD000120C3F0E17435046FFF710FD04004846F3
:103DE000FFF70CFD2318DB191A0C1B041B0CD3184E
:103DF000180C1B041B0CC018C04380B2F0BCBB469F
:103E0000B246A946A046F8BD10B582B0049C009405
:103E1000FFF79CFF02B010BD10B5FFF71DFFC043B8
:103E200080B210BDF8B5CE464746040080B50028E4
:103E30002FD000239946FF33002701269846658935
:103E400060682900FFF708FFC019070C0004000C88
:103E50003F182E4209D04B46414673403A069946D8
:103E60003B0A120C0B401A4317002468002CE6D1C1
:103E70004B46002B0AD038063B04000C1B0E18439F
:103E8000C04380B2C0BCB946B046F8BDF84380B26A
:103E9000F8E70148F6E7C046FFFF00000322094BA0
:103EA000FA219343084A0901136000221A71074A54
:103EB00058181060012219600271054A5A50054ACB
:103EC00013607047CF3F0220C43F0220C83F02204A
:103ED000A00FA00F80A50120F0B5D6464F4646465C
:103EE000C0B500285ED0830700D07FE00300414AC0
:103EF000083B12689A4200D972E03F490C300C68C6
:103F0000844200D26CE01979002900D16BE0FA20DC
:103F10001988000181420CD85D88AA46854208D8DC
:103F2000981A80B280465619A84205D0308840457C
:103F300002D03248FDF70CFB5018844237D0458838
:103F40004545F6D100251D712D4DAC462D689D428D
:103F500002D965462B601D009C423ED9834212D097
:103F60000779002F0FD184420DD0A8422FD00188AD
:103F7000FA2019800001814205D04446501844803F
:103F8000588882461618B3420CD03079002809D1DF
:103F9000AB4219D0FA2331801B01994202D053461B
:103FA00052185380E0BCBA46B146A846F0BD002581
:103FB0001D71134DAC462D68AB420CD265462B608B
:103FC0009C420AD91D00CBE763461E60E2E76146CA
:103FD0001D000B60CBE79C42C2D80A48FDF7B8FA37
:103FE0000948FDF7B5FA0948FDF7B2FA0848FDF7A8
:103FF000AFFAC046C43F0220C83F022014AD0110F2
:1040000080A5012048AD0110D0AC0110ECAC01102E
:10401000ACAC0110F8B5CE464746384ACB1C80B54B
:1040200013400B2B3FD9FA22120193423ED89942FA
:104030003CD8334A1668864256D8324A12688242C1
:1040400052D90400083C2588A11B2A0089B2083AED
:10405000521A92B29A424AD321D07719BC463F797C
:10406000002F25D1FA221201954243D062461288D0
:10407000254D91460A0008329B182F689BB2F21812
:1040800067452FD0002515714D4651801580FA21C6
:104090002380128809018A4201D0B2185380C0BC23
:1040A000B946B046F8BD0C239942C2D90020F6E7C4
:1040B0001F001437BFB2BA42F1D30A0008329B186E
:1040C000FA229BB298461201954213D00E4FF21875
:1040D0003B68934200D93A60002743461771158028
:1040E0005180D4E72A60CDE70848FDF731FA084847
:1040F000FDF72EFA0748FDF72BFAC046FCFF00003B
:10410000C43F0220C83F022080A5012064AD0110F9
:104110007CAD01109CAD0110F8B5DE4657464E4609
:104120004546E0B500282ED0404BC61C1E40B34685
:104130000B2E2FD9FA231B019E4224D8584522D892
:104140003B4BFA279A461B6859469846394B3F0124
:10415000186843461B1A9AB21B041B0C7F1A9F4215
:1041600011D9082149428946C41894462579C25A72
:1041700019001300002D04D14E46711A89185945B3
:104180000BD29742F0D80020F0BCBB46B246A946FD
:10419000A046F8BD0C239B46D0E75B4614339942FA
:1041A00011D201235E4623710836234B1A68A045BD
:1041B00020D0A619B24233D320000830A407E3D0A0
:1041C0001E48FDF7C5F95E466346FA2708369B1977
:1041D0009BB23F01BB4226D0C1180A8062464A808A
:1041E00001220D71238022710A88BA42DDD0821823
:1041F0005380DAE743461B79002B08D1D9E74346C1
:104200001B889846804443461B79002B04D0904578
:10421000F5D153461A60CCE7534641461960C8E7CA
:104220000748FDF795F90748FDF792F9FCFF0000F4
:1042300080A50120C43F0220C83F0220E0AD01104C
:10424000B0AD01109CAD01108023414370B55B02FD
:104250000C0099420AD288B2FFF75EFF051E03D018
:104260002200002115F050FC280070BD0025FBE75E
:1042700024230022F0B54746CE46904699460332A5
:1042800004249446124E80B5124B134FB14441465C
:1042900032683960614603338B43002C0BD015889C
:1042A0000021002200E003000132196058191900B2
:1042B000A242F8DB3B600436B14504D0326897680F
:1042C00053685488E3E7C0BCB946B046F0BDC04669
:1042D00098CB0110C0360220683F022010B5082894
:1042E00012D80C4B8000C458FEF7B2FDA3681C68BE
:1042F000002C07D022681A60A30707D1FEF7AAFD99
:10430000200010BDFEF7A6FD0024F9E70248FDF7E6
:104310001FF9C04698CB011024AE011070B50C00F7
:1043200008280ED800290CD0084B8000C5588B07F0
:1043300008D1FEF78DFDAB681A6822601C60FEF79D
:1043400089FD70BD0248FDF703F9C04698CB011006
:1043500048AE01100C2040427047C04670B50500C1
:104360000E00140082B0002A2AD043680A689A42DC
:1043700001D102B070BD2360200001A9019202F0BA
:104380007BF9200001A906F027F801A9200000F020
:10439000F1FE392332686A60E95C343B0B40052B3F
:1043A00005D0EB69002BE4D028009847E1E7002A0C
:1043B000F7D00907F5D52800291D08F03BF9F0E7EB
:1043C0000148FDF7C5F8C04668AE01107047C04609
:1043D000F0B54746CE4680B504000F0090461E005B
:1043E00083B000286AD00B9B002B67D0002900D136
:1043F0007BE04346002B00D17CE0002E00D17EE024
:104400004A4B002563610022392320006560A560C6
:10441000E56025860021E2542830042215F074FB63
:104420000A9BE5616362424B25621A7899463C23F8
:10443000E2540C9B23613B68002B45D043461B682C
:10444000002B2FD0A3603368002B2ED13900200021
:1044500001AAFFF783FF20000B9B984700282DD16E
:10446000344B98461E683C23E55CFF2D01D10025A6
:10447000E0543C273C20002E48D0802233005200DC
:1044800002E01B68002B41D09C424CD0013A002A2C
:104490000DD0D95DA942F4D10135EDB2FF2D09D07F
:1044A0002554EAE73368002BD0D0E360CEE72248FA
:1044B000FDF74EF8002300252354DEE7002003B06B
:1044C000C0BCB946B046F0BD390001AA2000FFF7D4
:1044D00045FF4346A1681B68E268994211D0A3607A
:1044E00033689A42B7D0E360B5E74346134F002BD9
:1044F00000D082E7114B9846002E00D080E70F4E87
:104500007EE733689A42A6D0E360A4E7FE2D08D088
:104510000135EDB24B461D704346266020001C60FD
:10452000CDE70025F6E70648FDF712F855430010E1
:1045300087510220883F02208CAE0110A0CE0110CE
:1045400078AE0110F0B504000D0017001E0083B016
:10455000002922D0002F23D0002E24D02B68002247
:10456000002B15D03B68A1688B4200D0A360336854
:10457000E1688B4203D1002A04D003B0F0BDE360B0
:10458000002AFAD16A4629002000FFF7E7FEF4E787
:104590006268002A09D10122E4E7174D002FDBD120
:1045A000154F002EDAD1144ED8E7684601A90193C1
:1045B000009202F061F8684601A905F00DFF01A91B
:1045C000684600F0D7FD39232A686260E15C343B1D
:1045D0000B40052B06D0E369002BDCD02000984768
:1045E0000122BFE7002AF6D00907F4D52000211DDB
:1045F00008F020F8EFE7C046A0CE011070B5041E09
:1046000016D04368002B17D139220121A35C19422F
:1046100024D11D4B1A68A2422ED01C4A1368A34213
:1046200004D126E01A68A24203D01300002BF9D16E
:1046300070BD22681A60FBE7051D0021280002F00A
:104640001BF80021280005F0C7FE0021280000F01B
:1046500091FD39220121A35C1942DAD01800884368
:10466000A0541B070BD4E369002BD2D0200098473D
:10467000CFE723681360DBE700221A60CDE7200054
:1046800007F04AFCEFE7C046843F0220883F022043
:10469000014B18607047C046843F022070B5041E6D
:1046A00010D03925435DDA070CD401221343DBB265
:1046B0004355C269002A01D09047635D05221A4024
:1046C000052A00D070BD6268002AFBD01B07F9D50F
:1046D0002000211D07F0AEFFF4E7C04670B5041EB0
:1046E00003D03925435D5A0700D570BD042213431A
:1046F000435506F0D7FD0523625D1340052B05D019
:10470000236A002BF1D020009847EEE76368002B66
:10471000F6D01207F4D52000211D07F08BFFEFE73C
:1047200010B500280AD039220421835C194205D033
:104730008B438354036A002B00D0984710BDC046BA
:10474000021E0ED0084B1868002809D03C2102E058
:104750000068002804D0435C0133DBB29342F7D1F8
:1047600070470020FCE7C046883F0220F8B50500EE
:104770000026002826D00F270BE0012B24D0002B89
:104780002AD12800FFF7A8FB0136F6B2002C19D079
:104790002500FEF75DFBAC7B002C1AD0013CE4B297
:1047A000AC73FEF757FB002C0CD12B7B2C683B40E5
:1047B000022BE2D1290008200136FFF7AFFDF6B247
:1047C000002CE5D13000F8BD29000720FFF7A6FD39
:1047D000DAE70348FCF7BCFE0248FCF7B9FEC04626
:1047E000BCAE0110D4AE011010B5FEF731FB0022B3
:1047F000084B1A70FEF72EFB074B1868002803D1F0
:1048000007E0C068002804D0436F002BF9D001F006
:104810007DFF10BD8951022028510220F0B5C1232F
:104820004F464646D6468046C0B50D0017000400E8
:104830005B009A4242D000220C0491460C439F42F6
:1048400008D83D00433BFF3B9D43012D24D03B480E
:10485000FCF77EFEA0239B009F42F8D103000327B4
:1048600003330335BB43BD435B199BB218001030C3
:1048700080B2AB4260D385425ED8FFF74DFC061E86
:1048800016D04B4603604346C3181333BB43436003
:104890002B4B8460C3600BE00720FFF71FFD061E53
:1048A00006D04B4684600360436007734373C58141
:1048B0003000E0BCBA46B146A846F0BD0023984699
:1048C000204B00269A4600230327994607E04246DC
:1048D000ED1AADB21060002DEAD080460024082009
:1048E000FFF7FCFC00281BD05246E31CBB43D31A45
:1048F0001A1C9BB2AB4200D92A1C4946041993B238
:1049000013344281104ABC43016044600581C26097
:10491000002EDCD1ED1AADB20600002DDDD1C7E7C7
:10492000FEF796FA0122094B1A70FEF793FA002E51
:1049300002D03000FFF71AFF0026B9E7E8AE0110F9
:1049400080000100EC050000820001008951022076
:1049500070B5041E33D002898A421BD98A1A07E037
:10496000C91A238989B29B1823812468002C20D07E
:1049700063898B42F4D3227B0D040D43120701D1CE
:104980008B4208D12068A560002801D0FFF7EEFE19
:104990000023236070BD636820001B1BC91889B207
:1049A000FFF738FB002807D08442EBD00548FCF71E
:1049B000CFFD0548FCF7CCFD0448FCF7C9FD0448D1
:1049C000FCF7C6FD50AF01101CAF011034AF011051
:1049D00004AF0110030070B500281FD080225202DE
:1049E00091420CD2002917D002898CB2A21892B23F
:1049F000944204D8057B01207F2D02D870BD012090
:104A0000FCE75D68691A1D001035A942F6D35960AC
:104A100059891A8164185C810020EFE70148FCF78E
:104A200097FDC0466CAF011010B5002815D080234B
:104A30005B0299420FD200290BD043898AB29A4275
:104A400009D89B1A44684381038961189B1A416005
:104A50000381002010BD0120FCE70148FCF778FD30
:104A60006CAF011010B5002915DB002829D00029F2
:104A70000FD003898AB2D3189BB29A421FD84468D8
:104A8000611A047B7F2C16D841604189038152183A
:104A90004281002010BD4942002812D043898AB2C9
:104AA0009A420CD89B1A44684381038961189B1A67
:104AB00041600381EDE704001034A142E4D20120FB
:104AC000E8E70148FCF744FD6CAF011010B5002881
:104AD00002D0FFF74BFE10BD0148FCF739FDC04680
:104AE0006CAF011003000020002B04D01B680130C4
:104AF00080B2002BFAD1704710B5041E09D0FEF722
:104B0000A7F9A37B0133A373FEF7A4F9A37B002BC2
:104B100000D010BD0148FCF71BFDC04678AF011066
:104B200010B5002818D0002916D088421AD0026883
:104B3000002A01D111E01A0003890C891B19038195
:104B400013681000002BF6D110895389834206D1D7
:104B5000088911601B18138110BD0200F4E7034897
:104B6000FCF7F6FC0248FCF7F3FCC046A8AF0110C6
:104B70008CAF011010B50C00002821D000291ED0E8
:104B8000884220D00368002B07D00289218952185F
:104B9000028118001B68002BF7D1028943899342D8
:104BA00017D1228904609B180381FEF751F9A37B7A
:104BB0000133A373FEF74EF9A37B002B06D010BD83
:104BC0000029FCD0F1E70448FCF7C2FC0348FCF7DD
:104BD000BFFC0348FCF7BCFC8CAF011078AF0110A0
:104BE000A8AF0110F8B54746CE46804680B591463D
:104BF0000F001E00002900D192E00B89934200D2E1
:104C00008EE0002800D18BE04B460289F3189A42CF
:104C100000DA85E0002544894B890CE0B4423AD0A3
:104C20003A899A4230D042461289A24243D04A463B
:104C3000002A00D172E05B1BA41B9C4200D91C001F
:104C40004C4500D94C464346796858682200801983
:104C5000491914F05FFF4B4636192D191C1BA3B2DE
:104C6000994643465C892200B4425CD37B89AB42BF
:104C70005CD3D3D13F68002F22D0B4420AD07B89C5
:104C80003A8900259A42CED13A68002ACBD0062034
:104C9000404225E0002543461B689846002B23D060
:104CA0007B893A8993422ED04246548942461289E2
:104CB0000026A242BBD142461268002AB7D0E6E7DE
:104CC0004B46002B2CD1B44221D043461B89934242
:104CD00024D143461868431E984105234042984317
:104CE000C0BCB946B046F8BD4B46002B18D13A8936
:104CF0007B8900209A42F3D13868431E98410523EE
:104D000040429843ECE73A68002ACDD0BFE74346DB
:104D10001B689846002B01D05A89D6E70020DFE7B0
:104D200010204042DCE70348FCF712FC0248FCF785
:104D30000FFCC046D8AF0110F0AF011010B500292C
:104D400004D000230A89FFF74DFF10BD1020404218
:104D5000FBE7C046F0B5C64605008846170000B51B
:104D600000280DD000290BD0002F09D06C89002B12
:104D70000BD0A34209D32D681B1B9BB2002DF5D18C
:104D80000026300080BCB846F0BD002603E0002DB0
:104D9000F7D000236C89E41A221CA4B2BC4200D9CB
:104DA0003A1C94B2424669683F1B9019C918220008
:104DB000A619BFB214F0AEFEB6B22D68002FE6D130
:104DC000DFE7C046F8B54746CE4680B598466B4605
:104DD00004000D001B8C00280BD0002901D0904549
:104DE00007D862899A4209D824689B1A9BB2002C82
:104DF000F7D10020C0BCB946B046F8BD41465918AD
:104E00008A4230DA002DF4D04146002929D0002B07
:104E100009D0934207D324689B1A9BB2002CE8D098
:104E20006289002BF5D14646002703E0002C16D0FE
:104E300000236289D21A111C92B2B24200D9311CED
:104E40008AB291466168E819C91814F063FE4B46AE
:104E5000F61A4F44B6B22468BFB2002EE6D1B84568
:104E6000C7D12800C6E76068C018C3E7F8B5CE46CA
:104E7000474605008846914680B5002824D0002981
:104E800022D0038993421CD316000027002A02D1A6
:104E900012E0002D1BD06C89B44200D93400434687
:104EA0006868D919220014F035FE361B2D683F19A9
:104EB000002EEED1B9450DD10020C0BCB946B04698
:104EC000F8BD01204042F8E710204042F5E70348D2
:104ED000FCF73EFB0248FCF73BFBC0460CB0011060
:104EE00024B00110F0B5D6464F46464605008A4626
:104EF000C0B5002805D144E02D68DB1B9BB2002D16
:104F00003FD06F899F42F7D92989981881468142FD
:104F100037DB6868C018FB1A9A422EDD9BB21A0074
:104F20005146984614F0F6FD4B46DF1BBBB299463E
:104F3000002B1CD02F68002F29D03B894B4520D354
:104F40004E46002401E0002F1ED07D89B54200D9D5
:104F500035004346191978682A00514414F0DAFDE7
:104F6000761B3F686419002EEDD1A14512D10020B7
:104F7000E0BCBA46B146A846F0BD514614F0CAFDA1
:104F8000F5E701204042F3E70448FCF7E1FA10207E
:104F90004042EDE70248FCF7DBFAC0460CB00110D6
:104FA00024B001100B0070B5150011891A00FFF72D
:104FB00035FC041E06D0002329002A89FFF712FEC3
:104FC000002801D1200070BD0148FCF7C1FAC0469D
:104FD0003CB00110002805D109E00068C91A89B267
:104FE000002805D043898B42F7D94368585C704745
:104FF0000020FCE705E043898B4205D8C91A006808
:1050000089B20028F7D1704743685A54FBE7C0467D
:10501000F0B5DE46454657464E468046E0B5514F10
:1050200083B03968786908F02BFD43465A684E4BC7
:10503000557A1C689B46002C00D18EE0002843D195
:105040003C2300269946844604E0E3682600002BB2
:1050500032D01C00237CAB42F7D1217A002906D044
:1050600048467B681B5C0133DBB29942EDD1236873
:10507000002B02D079698B42E7D10121637C194270
:1050800003D061683B699942DFD163699A46002B7E
:10509000DBD0019221004246A069344BD047002862
:1050A00050D143465A68019B934258D102239C46F3
:1050B000E3682600002BCCD1604603B0F0BCBB46B1
:1050C000B246A946A046F0BD0020012300269A461C
:1050D000019004E0E3682600002B31D01C00237C03
:1050E000AB42F7D1217A002908D07B689C463C234B
:1050F0006046C35C0133DBB29942EBD12368002BDD
:10510000E8D15146637C194203D061683B699942FA
:10511000E0D163699946002BDCD001922100424620
:10512000A069124BC84700280CD143465A68019B1E
:105130009A4214D102230193E3682600002BCDD1BB
:105140000198BAE7002E06D0E368F3605B461B685F
:10515000E3605B461C600120AFE70020ADE7044838
:10516000FCF7F6F964A50120884F022074A5012000
:1051700050B0011010B5002811D00268002A0ED0DE
:1051800000290CD00B68002B09D0094B1B68002BA1
:1051900005D01C68944203D0DB68002BF9D110BD08
:1051A0000A681A60DB68002BF9D00268F1E7C04694
:1051B000884F02207047C04610B5041E20D0037DE2
:1051C000042B03D0072B0AD0032B11D1200003F0AE
:1051D00089FC0523002807D0431C0BD010BD03F029
:1051E00081FC0028F8D109232000237503F0EEFF8D
:1051F0000020F3E70822638B002013436383EDE76D
:105200000148FCF7A5F9C0469CB0011070B5060036
:10521000806F002803D0FFF759FC0023B367746F39
:10522000002C18D06068256800280CD0FFF74EFCD1
:1052300021000420FFF772F8002D0AD02C006068CE
:1052400025680028F2D121000420FFF767F8002D1F
:10525000F4D1002373670123F46E5B423386002C84
:1052600016D06068256800280CD0FFF72FFC2100BD
:105270000420FFF753F8002D0AD02C006068256841
:105280000028F2D121000420FFF748F8002DF4D1C6
:10529000346F002C16D06068256800280CD0FFF70A
:1052A00015FC21000420FFF739F8002D0AD02C004E
:1052B000606825680028F2D121000420FFF72EF84D
:1052C000002DF4D100236822F3663367B35270BD1A
:1052D00010B5FEF77BF9044A80049446034B800C1A
:1052E0006044188010BDC04600C0FFFF6C62012002
:1052F00010B5037D0100012B03D00220FFF70EF84B
:1053000010BD0148FCF724F9A8B00110F8B5CE464D
:10531000474680B5002961D0002864D0037D002B6A
:105320005ED1002A2BD0314E3700103733681B680E
:10533000002B03D113E0DB68002B10D0DC8A9442F1
:10534000F9D11C68002C04D00D68002D01D0AC42AE
:10535000F1D108204042C0BCB946B046F8BD043681
:10536000B742E3D10B68002B00D00360204BC28210
:105370001A681860C26004F07DFB0020EBE71D4B4B
:10538000802698461A881C4B184F9C461023994635
:10539000F601B944013292B2624514D03D002B6847
:1053A0001B68002B03D111E0DB68002B0ED0DC8AD8
:1053B0009442F9D1013EB6B2002EEBD143461A8099
:1053C00002204042C7E7C0221202E7E704354D45FC
:1053D000E5D143461A80002AC4D1F1E707499BE78B
:1053E00006204042B7E710204042B4E728CC011025
:1053F0002C5102206C620120FFFF0000A0CE0110A2
:10540000F8B5031E1BD0048DC16A466A5D8E0F4F2E
:10541000601A80192A1CBD420CD892B2821A07D594
:10542000891B09D48022520291420BD200208CB2F7
:105430005C85F8BD3A1CF0E700240020F8E704483A
:10544000FCF786F80348FCF783F8C046D016000046
:10545000BCB00110E0B00110F8B500281DD0037DEC
:10546000012B34D0048D1D4A61188BB293421BD995
:105470001300466A458E1A4FC46A0385B218291C68
:10548000BD420BD889B20919511A11D5A41B1BD4DE
:1054900080235B029C421DD24485F8BD391C89B231
:1054A0000919511AF2D403E09C42E1D81A00E0E74E
:1054B00043850C4B121B9A42EFD90222438B1343B4
:1054C000438303F083FEE8E700234385E5E70648CE
:1054D000FCF73EF80548FCF73BF8C046A02D00005D
:1054E000D0160000670B0000FCB00110E0B0011006
:1054F000F8B54E46DE46574645460400E0B51E0068
:10550000002800D1B7E0002900D1B4E0037D002BD2
:1055100000D0ADE00B6802834360007A002837D1E9
:10552000201D07F065FF002800D1A7E02368002BAD
:1055300001D143682360E78A002F37D1514B9A4647
:105540001D888023DB019C464F4B98464F4B994664
:10555000102343449B460135ADB24D451BD0434615
:105560001A681268002A03D118E0D268002A15D000
:10557000D18AA942F9D16346013B9BB29C46002BDC
:10558000E9D153461D806346E38202256D4250E017
:10559000FFF7D6F8C7E7C0252D02E0E704335B45E7
:1055A000DED15346E5821D80002DEED0384B3949BF
:1055B0001A68096852181A6000232265013A626469
:1055C000A265E265344A6362A262344AE3626033F0
:1055D000E252028E002A3AD0131C282A3CD386219C
:1055E000283B1A1C9BB289008B4233D892B2628648
:1055F00048230122E252403302212000E65003F00A
:10560000FDFA051E15D102232375002F05D0244A6B
:105610001368A34218D1E3681360224B1A681C6018
:10562000E26004F027FA01221F4B20001A7003F0F9
:10563000CDFD2800F0BCBB46B246A946A046F8BD49
:10564000DA68A24211D01300002BF9D1E5E78622D7
:105650009200CCE70A1CC9E728238621283B1A1CA4
:105660009BB289008B42C1D9F4E7E268DA60D4E7E3
:105670000A256D42DDE710256D42DAE704256D420B
:10568000D7E7C0466C62012028CC0110FFFF000064
:105690006862012038510220A02DA02DA02D00000D
:1056A0002C510220285102208D510220C54BF0B50B
:1056B0004E469946DE46574645464A46E0B51B6883
:1056C00089B001331360C04A137805920133137017
:1056D000BE4B0793BE4B0693079B1C68002C00D162
:1056E000C7E000239B4649E0012290460B2B00D8DF
:1056F000E8E0062D00D10FE1637A1B0758D5042D91
:1057000000D0E8E14B461F68236AFA21FF1A942370
:10571000E35849009A469823E6580433E05870430A
:10572000504413F025FD874200D8BDE143460133C4
:10573000DBB2984601239A46666F002E00D1FDE049
:105740004023E25E53009B185B00BB4241D9257D9C
:10575000032D5AD0092D00D109E14346002B00D07A
:10576000ECE0237F627F0133DBB2E56823779A4266
:1057700000D810E1A3462C00002C7AD0257D002D06
:1057800000D1E6E1012D00D1E0E10A2D00D1DAE1FE
:10579000059BA27F1B789A4200D11FE1A377422389
:1057A000E35C022DA0D1052B00D88BE001239846A5
:1057B000666F002E00D174E14B461F68236AFF1A02
:1057C00000239A464023E25E53009B185B00BB42D5
:1057D000BDD87068356800280CD0FFF777F9310024
:1057E0000420FEF79BFD002D0AD02E00706835685E
:1057F0000028F2D131000420FEF790FD002DF4D1F5
:105800000023257D6367032DA4D14B46226A1B68C4
:105810009B1A282B00D8B1E09023E6582000FFF710
:10582000F5FC5A46079B1B68002A00D167E19C42A1
:1058300000D197E1E368D3605346002B00D04EE1DE
:10584000237D2569E768012B00D188E12100022032
:10585000FEF764FD0023069C2370002E07D00D2167
:1058600028004942B0472378002B00D034E73C1E83
:1058700084D1584E002431684D46002904D11AE0E5
:105880000C00C968002916D00B7D0A2B00D063E1FB
:105890002B680A6A9B1AF02BF2D93368002C00D1CE
:1058A0003AE1994200D166E1CF68E7600220FEF755
:1058B00035FD391EE8D109B0F0BCBB46B246A94659
:1058C000A046F0BDA123E35C9846002B00D188E000
:1058D000236F002B00D051E1E36E002B00D144E197
:1058E000A223E35C0B2B00D906E14246A0213A4BF0
:1058F000D25C635C934200D207E16023E15A002945
:1059000025D1200003F05AFF002826D0257D002352
:105910009846062D00D0EFE6638BDB0600D5B2E09B
:10592000637A1B0700D543E7666F002E00D043E77C
:1059300000239A464346002B00D112E79023E658F5
:10594000012D00D86DE70A2D00D067E769E7200038
:1059500002F0EEFF002800D1EEE0A0230022E25486
:10596000A132A35C062BD1D80133A354CEE74B461A
:10597000226A1B689B1AF02B00D94DE74346002B87
:1059800000D049E7237F627F0133DBB2E5682377EC
:105990009A4200D9EEE60023069A237713708C33DF
:1059A000E358002B0AD0210020699847069B1B78FA
:1059B000002B00D090E6002800D0DBE6200003F0AA
:1059C00005FCD7E6385102208F51022028510220D1
:1059D0008D5102203C51022037CC0110A346E468CF
:1059E000CAE63023E25E6849238E8B4202D8013337
:1059F0001AB222864023E35E934200DD79E620005E
:105A000003F092F9257D002807D0236F002B00D0EA
:105A10006FE6E36E002B00D16BE6022D14D03C2222
:105A2000A35E3E21625EDB109B184222A15C5748B8
:105A30000A1C0C2977D8D2B2825C934080221202D1
:105A400093426EDA4022A35200234820238660331B
:105A5000E15A255A628E0B1CA94200D92B1C9BB21D
:105A600050005B0885B2191CAB4200D2011C4A23CE
:105A7000E152023BE252002222332000E25203F0C4
:105A8000CBFD257D35E64B461F68236AFF1A282F7C
:105A900000D849E743460133DBB2984600239A46D3
:105AA0004AE600239A4652E6A323E35CFA215E43CA
:105AB00030004900504413F05BFB874200D833E7C5
:105AC000200003F00DFE002800D071E6A322A35CA5
:105AD0000133A3546CE6072D00D113E668E6238B4F
