:020000041000EA
:1000000000B5324B212058609868022188439860DF
:10001000D860186158612E4B002199600221596106
:100020000121F02299502B49196001219960352056
:1000300000F044F80222904214D00621196600F024
:1000400034F8196E01211966002018661A6600F04E
:100050002CF8196E196E196E052000F02FF8012189
:100060000842F9D1002199601B49196000215960AB
:100070001A491B48016001219960EB211966A021F2
:10008000196600F012F800219960164914480160C1
:100090000121996001BC002800D000471248134993
:1000A000086003C880F30888084703B5996A0420EC
:1000B0000142FBD001200142F8D103BD02B5186610
:1000C0001866FFF7F2FF186E186E02BD00000240BE
:1000D000000000180000070000035F00212200005C
:1000E000F4000018222000A00001001008ED00E03C
:1000F00000000000000000000000000074B24E7A12
:1001000000200420F7010010CB010010CD010010E9
:10011000C9010010C9010010C9010010C901001077
:10012000C9010010C9010010C9010010CF01001061
:10013000C9010010C9010010D1010010D301001045
:10014000C1010010C1010010C1010010C101001067
:10015000C1010010C1010010C1010010C101001057
:10016000C1010010C1010010C1010010C101001047
:10017000C1010010C1010010C1010010C101001037
:10018000C1010010C1010010C1010010C101001027
:10019000C1010010C1010010C1010010C101001017
:1001A000C1010010C1010010C1010010C101001007
:1001B000C1010010C1010010C1010010C1010010F7
:1001C000EFF30580103800BE00BE00BE00BE00BECA
:1001D00000BE00BEF2EB8871784905109C490510FD
:1001E0003802001090A31AE71E481F49086006C88D
:1001F00081F3088810471D480068002801D019487D
:10020000F3E70DA40ECC002902D000F012F8F9E7B4
:100210001749184A002000E001C19142FCD116495B
:100220008847164988471649884700BEFDE701C937
:1002300001C29A42FBD370479C490510E0000020A0
:10024000B06301206CAC0610000004200000042004
:100250006CAC061000100420001004200000000008
:10026000704700000000000008ED00E0000000D032
:10027000B0630120DC4C0220F94E0010850B001009
:10028000F14E0010F8B5C04606480749091A8B1010
:10029000C90FC91810B5491003D0044B002B00D06A
:1002A000984710BDB0630120B0630120000000003A
:1002B000054B10B5002B03D00449054800E000BFF2
:1002C000FFF7E2FF10BDC04600000000DC3A02204C
:1002D00014A8011010B5024805F01EF810BDC04664
:1002E00018A8011010B5024805F016F810BDC04658
:1002F00040A8011010B5024805F00EF810BDC04628
:1003000068A80110802310B5154CDB00A544141C0F
:100310009A4201D3134B1C1CA4B22200684603F07E
:1003200033F900236A4669460F48135504F0F4FF79
:100330000E4B009A9A4207D00D4B009A9A4207D072
:100340000C4804F065FF06E00B4B019A9A42F3D18A
:100350000A4804F05DFF8023DB009D4410BDC046C9
:1003600000FCFFFFFF03000098A801107072656495
:1003700072756E00F0A8011069637400B4A80110D2
:1003800070B50500140084B0002A1FD1124804F093
:100390003FFF00232800114A114918F0A9FE01224D
:1003A000104E114B3100019228000022009418F0E9
:1003B000E3FC0E4B3100029328000B230C4A0394FC
:1003C0000194009418F024FB04B070BD110009489A
:1003D00004F0A2FFF8E7C04624A9011005030010AD
:1003E000F502001034A90110E5020010D50200103A
:1003F00040A901104CA90110F8B5354B57469A4653
:100400000023DE464E464546834688469946E0B57B
:10041000304F53465E461C682F4BFD18296801CEAD
:1004200002F091FF011C201C02F076FF1035041C25
:10043000AF42F3D14B4642469B00D05001239C462D
:100440000333E1449C464B46E2440437042BE0D19D
:1004500016685568301C291C02F0A4FF002800D142
:10046000351C43469C68281C211C02F09BFF002879
:1004700000D12C1C4346DE68201C311C02F092FF88
:10048000002800D1261C45462F0000241037434683
:1004900001CB311C984602F03CFF02F0B7FF011C73
:1004A000201C02F039FF041CB845F0D12868311C2B
:1004B00002F02FFF02F0AAFF211C02F030FF01C55D
:1004C000BD42F3D1F0BCBB46B246A946A046F8BD3A
:1004D000181200202814002000FEFFFFF0B5574638
:1004E0004E46DE464546E0B585B000AF7A60734AB9
:1004F0008B469446E544EA46E544E846E5446A46C8
:10050000FA608022D2019E18002399465346B860B3
:100510003B606B4BBD68F41800239A462B00250006
:100520005446B2461E00296801CE02F00CFF011CA1
:10053000201C02F0F1FE80239B009C466544041CB5
:10054000AA45F0D14B469A004346985001239C4659
:10055000E14456464B460436802BDAD13B680022F4
:100560009A468023DB019C46BD6B43466544914619
:10057000A846BB605D460024514E4644316801CD1B
:1005800002F0E1FE011C201C02F0C6FE80239B004D
:100590009C466644041C4645F0D14B46FA689B00D5
:1005A000D05001239C46331DE14498464B46802B96
:1005B000E0D1BB6880269846FB6855469946FB6BA0
:1005C00000249A46B6004B4619594346185902F082
:1005D000A3FE5346195902F09FFE28510434B44239
:1005E000F1D1AA46802353449B462B000133FF33AD
:1005F000BB60C02300245B005344FB605346185982
:1006000080231B069C46604402F000FF5B46814647
:10061000185980231B069C46604402F0F7FEBB6815
:10062000061C185902F02CFFFB68804618598023DD
:100630001B069C46604402F0E9FEFE21051C89056C
:10064000301C02F069FE011CFE20800502F067FEEE
:100650007B68195902F077FEFE21061C8905484681
:1006600002F05AFE011CFE20800502F058FE4146B1
:1006700002F069FE011C301C02F04EFE7B6C18512A
:1006800002F0FEFEFE21061C8905281C02F044FE35
:10069000011CFE20800502F042FE311C02F053FED8
:1006A0003B6C18510434802CA8D1BD4605B0F0BC79
:1006B000BB46B246A946A046F0BDC04600FEFFFFBD
:1006C00000C0FFFFF0B557464E464546DE46E0B552
:1006D00087B000AFBB60674B80269C460368E5444B
:1006E000EB469A46E544644B6D46E544E8460024F3
:1006F00099463961FA60B6004B465046195902F0E6
:1007000022FE002102F008FE28510434B442F3D145
:1007100080235A4ADB01D6188423DB019946002343
:100720007D60350091447B61554B3E69EC18002398
:100730009A4623005446AA4635001E00316801CD72
:1007400002F001FE011C201C02F0E6FD80239B004C
:100750009C466644041CB245F0D1554641467B692F
:1007600004359A00013388507B61A945DCD17D684E
:10077000444B8026AA46002499465D46B60043466F
:1007800019595346185902F0C7FD4B46195902F042
:10079000C3FD28510434B442F1D1AB4680235B44FD
:1007A0003B6180235B005B449A46C02300245B00CE
:1007B0005B447B615B46185980231B069C46604462
:1007C00002F024FE3B698146185980231B069C4693
:1007D000604402F01BFE5346061C185902F050FEFE
:1007E0007B698046185980231B069C46604402F0B2
:1007F0000DFEFE21051C8905301C02F08DFD011C3B
:10080000FE20800502F08BFDFB68195902F09BFD6C
:10081000FE21061C8905484602F07EFD011CFE20D3
:10082000800502F07CFD414602F08DFD011C301C6C
:1008300002F072FD3B6C185102F022FEFE21061CF4
:100840008905281C02F068FD011CFE20800502F0CD
:1008500066FD311C02F077FDBB6818510434802C12
:10086000A8D1BD4607B0F0BCBB46B246A946A046DB
:10087000F0BDC04600FEFFFF285A0120281A0120C3
:1008800000C0FFFF28180120F0B5DE464546574658
:100890004E46E0B59E4C8022A54400210EA802F0F1
:1008A0006DFE802200212EA802F068FE7823994D6B
:1008B00098462E00984C6EAFA0444EAB20002EAA56
:1008C0000EA90097FFF7FEFE80224EA90EA802F0A7
:1008D0005BFE802239002EA802F056FE0434300060
:1008E00080224EA902F050FE80364445E5D1802298
:1008F00000218EA802F042FE80220021AEA802F064
:100900003DFEF0231B019B46844B854C9A46EEAB83
:100910009846844B27009946834B099454469A463F
:10092000AB44CEAE434603934B4601935346280057
:100930000093AEAA23008EA90296FFF7CFFD802276
:1009400031008EA802F020FE80224146AEA802F0BF
:100950001BFE803538008022310002F015FE803702
:10096000AB45DFD1FFA8802200213C30099C02F07A
:1009700005FEFFA880220021BC3002F0FFFDF0231D
:100980001B019A46694B6A4F994602AB9C46694BDC
:10099000B62698463B00A6254F469946F600ED0040
:1009A000A24466446544434601934B46FFAAFFA90F
:1009B00020000093BC323B003C3103960295FFF7C8
:1009C0008DFDFFA8802229003C3002F0DDFDFFA84C
:1009D00080223100BC30803402F0D6FD5445E2D193
:1009E0000AAC21002800FFF707FD63680A9F181C66
:1009F000391C984602F0DCFC00283FD04546012611
:100A0000A368281C191C994602F0CCFC002801D0D0
:100A10004D460226E368291C181C9A4602F0C8FCC1
:100A2000002800D003260121434804F075FC434B05
:100A300025009B46002401CD02F0E2FC02000B00E1
:100A400058462100013404F067FC042CF3D1310036
:100A50003B4804F061FC3B4D2868002803D018F0A7
:100A6000C7FF00280DD1384804F0D2FB374B9D4416
:100A7000F0BCBB46B246A946A046F0BD00263D1CD0
:100A8000BEE7504602F0BCFC06900791484602F0D3
:100A9000B7FC04900591404602F0B2FC029003912D
:100AA000381C02F0ADFC2A4C009001912200C620B7
:100AB00002ACA446C00080213300604404F0BEF9BB
:100AC000C623A446DB006344180019F067FC00222B
:100AD000204C83B22868039202940192009202ACE7
:100AE000C622A446D2001C49624417F091FF011EA1
:100AF00009D102AAC6239446DB00634419001748B3
:100B000004F00AFCB2E7164804F006FCAEE7C04663
:100B100044F9FFFF90660120EC4B022028D800200A
:100B20009075012028960020289800202856002043
:100B3000281600202814002074A9011090A9011083
:100B4000A4A90110D48D012004AA0110BC06000044
:100B5000B8A90110D5020010F4A9011038AA01109B
:100B60005CAA011070B50025054C2378002B02D03B
:100B7000FFF78AFE2570012001F086FBF5E7C046ED
:100B8000D24C0220F0B5DE4657464E464546E0B50B
:100B9000D1B004F0EFFA3D4818F086FF12F01AF9D0
:100BA000002800D076E212F0B5F8394939483A4BBE
:100BB0003A4A12F0BDF80790002800D05EE23848AB
:100BC00004F026FB18F0A0FA364D2860002800D16A
:100BD00064E22BAC2200344B43CB43C243CB43C231
:100BE0001B682AA91360314811F070FE0194079C1C
:100BF0002F4A00942F4B28682AA918F08DFA2E4B03
:100C00002E4918009A4607F097F80321022000F0B9
:100C10004FFA0321080000F04BFA220001210220C4
:100C200000F060FA22000121032000F05BFA244862
:100C300001F02AFB0023234A08942592224A234DDF
:100C40009146234A19931A931B931C931D931E9349
:100C50001F9324930B931093119312931393149354
:100C600015931693239317930C9309930D9318934D
:100C70000F930E930A9322932692164AD0462792F8
:100C8000012232AC9346209363E0C046650B00100E
:100C900098AA0110A4AA01103075000004004000B9
:100CA000C8AA0110D48D0120D4CA0110F8AA0110DD
:100CB0005B07000081030010D85D0120A0860100C1
:100CC0001027000008AB0110285C0120A05C012067
:100CD000EC4B0220D24C02200133C820089301F0D3
:100CE000D3FA1F9B24931E9B1F931D9B1E931C9B3B
:100CF0001D931B9B1C931A9B1B93199B1A93209B60
:100D0000199353462093169B2393159B1693149B7C
:100D10001593139B1493129B1393119B1293109B87
:100D200011930B9B1093069B0B930A9B22930E9B94
:100D30000A930F9B0E93189B0F930D9B1893099B7F
:100D40000D930C9B0993179B0C93059B1793219B69
:100D500007933B2224AB24A98C46DA755B46002618
:100D6000243A6244682100934046012307F00CF8BE
:100D70000223220068210096404607F00FF82388DE
:100D800024AADBBA9A463D2324A98C46D3755B4638
:100D900017226821624400934046012306F0F4FFC5
:100DA0000223220068210096404606F0F7FF3F2309
:100DB00024AA24A98C46D3755B461722278862444F
:100DC000682100934046012306F0DEFF0223220043
:100DD00068210096404606F0E1FF504602F0EEFA28
:100DE000E221890502F0AFFAFFBA0590380002F05F
:100DF000E5FAE221890502F0A6FA26880690F6BAFD
:100E0000300002F0DBFAE221890502F09CFA079B30
:100E100082465A1C0598219202F0F2FA06005046CA
:100E20000F0002F0EDFA02900391069802F0E8FA42
:100E30003B000090019132000799259804F06CFA6C
:100E4000089B092B00DC47E72968229802F061FA29
:100E50004B46196802F063FAA96A2060239802F0F1
:100E600058FA4B46996A02F05AFA296DA062249802
:100E700002F04FFA4B46196D02F051FA696820658D
:100E80000A9802F046FA4B46596802F048FAE96AB5
:100E90006060169802F03DFA4B46D96A02F03FFABC
:100EA000696DE0621F9802F034FA4B46596D02F00A
:100EB00036FAA96860650E9802F02BFA4B469968DD
:100EC00002F02DFA296BA060159802F022FA4B4629
:100ED000196B02F024FAA96D20631E9802F019FA2A
:100EE0004B46996D02F01BFAE968A0650F9802F075
:100EF00010FA4B46D96802F012FA696BE060149858
:100F000002F007FA4B46596B02F009FAE96D60638B
:100F10001D9802F0FEF94B46D96D02F000FA2969DE
:100F2000E065189802F0F5F94B46196902F0F7F9F7
:100F3000A96B2061139802F0ECF94B46996B02F013
:100F4000EEF9296EA0631C9802F0E3F94B46196E86
:100F500002F0E5F9696920660D9802F0DAF94B466E
:100F6000596902F0DCF9E96B6061129802F0D1F97D
:100F70004B46D96B02F0D3F9696EE0631B9802F01F
:100F8000C8F94B46596E02F0CAF9A969606609981A
:100F900002F0BFF94B46996902F0C1F9296CA061D2
:100FA000119802F0B6F94B46196C02F0B8F9A96E27
:100FB00020641A9802F0ADF94B46996E02F0AFF931
:100FC000E969A0660C9802F0A4F94B46D96902F0D1
:100FD000A6F9696CE061109802F09BF94B46596CD8
:100FE00002F09DF9E96E6064199802F092F94B469F
:100FF000D96E02F094F9296AE066179802F089F92F
:101000004B46196A02F08BF92062A96C0B9802F02A
:1010100080F94B46996C02F082F9296FA064209800
:1010200002F077F94B46196F02F079F9696A206787
:10103000059802F06EF94B46596A02F070F9E96CB6
:101040006062069802F065F94B46D96C02F067F9C8
:10105000696FE064504602F05CF94B46596F02F04C
:101060005EF9782260672100269802F08DFA5A46D0
:10107000279BC8201A7001F007F932E6094804F0EE
:10108000C7F80120404251B0F0BCBB46B246A94669
:10109000A046F0BD044804F0BBF8F2E7034804F0B2
:1010A000B7F8EEE7B0AA01107CAA0110DCAA011083
:1010B000094A83009A1810B51468402254408032BF
:1010C0002240064CC000A44663441A60044B9C4670
:1010D0006044416010BDC04604C0014004D00140DE
:1010E00000400140074B8000C3181B68C9009200F4
:1010F0000A435A400C231340034A94466044036059
:101100007047C04604C0014004D00140800000295F
:1011100005D0064B9C460223604403607047044B95
:101120009C46022360440360F8E7C04604E00140A7
:1011300004F00140D0231B061B6830B5050058425F
:1011400043412F205B4283430E48EC08844607202E
:1011500028408000814020000B4D3C3063448000DB
:10116000A40041511B19002A05D080229201944607
:101170006344196030BDC0229201944663441960F3
:10118000F8E7C0463041014000400140D023F0B5AF
:10119000C6461B0698461B680C4F9B001600FA5863
:1011A00004000D0000B5104209D1290014430D20A0
:1011B0003200FC5000F092F980BCB846F0BD01F05E
:1011C000A5FB43461B689B00FA58EEE7C84A02207D
:1011D00010B504000D2000F07BFAD0231B061B681D
:1011E00002499B005A58A2435A5010BDC84A0220D7
:1011F0000123D0228340120693629361094A83003F
:101200009A1811684022514080320A400649C000B5
:101210008C4663441A60054B9C460523604443603A
:101220007047C04604C0014004D001400040014066
:101230008023DB051868000F7047C0460FB400B567
:10124000084883B003F0E4FF049B002B07D005A9F6
:101250001800019103F018FE034803F0D9FF0120A4
:1012600003F02AFE28AB0110C0C60110EFF3108076
:1012700072B6034A1368002BFCD0BFF35F8F704730
:101280002C0100D0BFF35F8F0022024B1A6080F365
:10129000108870472C0100D070B5EFF3108C72B637
:1012A0000D4D2B68002BFCD0BFF35F8F0724CB08BC
:1012B000C618C05C01230C40A3401C00044003423C
:1012C00007D118433070BFF35F8F2C608CF3108808
:1012D00070BD1000FFF7B2FF2C0100D0F8B54746F3
:1012E000CE46884680B5EFF3108C72B61C4D2C6844
:1012F000002CFCD0BFF35F8F9A4222D80721012631
:10130000894602E00132934218D34D46370015401A
:10131000AF40D4080119045D2742F3D110003C43CB
:101320000C70BFF35F8F00220D4B1A608CF3108896
:1013300000280EDBC0BCB946B046F8BD01204042D3
:10134000EFE7BFF35F8F00232B608CF31088012041
:1013500040424346002BEDD00898FFF76FFFC04690
:101360002C0100D030B5EFF3108C72B60A4C236814
:10137000002BFCD0BFF35F8F072301220B409A4064
:10138000CD08435D93434355BFF35F8F0023236034
:101390008CF3108830BDC0462C0100D0044A107870
:1013A000431CDBB2172B00D9102313707047C046C3
:1013B000185D012010B5064B064C82B00100009369
:1013C00018221F232000FFF789FF02B010BDC0467E
:1013D00038AB0110C88D01200021044B044ABFF333
:1013E0005F8F02C39342FAD17047C046000100D01C
:1013F000800100D0054B064A1360064A1360536013
:101400009360D360136153619361704780808080E3
:1014100000E400E004E400E01F2318401E3B83408A
:10142000002905D0C021044A490053501360704779
:10143000802201498B50FAE700E100E0012282405E
:10144000034B1B6813405A1E9341D8B27047C046E5
:1014500000E100E001238340014A13607047C04669
:1014600000E200E0064B10309B688000C358054A3C
:1014700000209B1A2F229A424041C0B27047C046BA
:1014800000ED00E01C5D012070B50D00EFF310864B
:1014900072B60F4A1368002BFCD0BFF35F8F0D4B61
:1014A00010309B6884001B590B4A934203D09D4225
:1014B00001D001F02BFA074B9B681D51BFF35F8FE2
:1014C000BFF35F8F0022024B1A6086F3108870BD55
:1014D000240100D000ED00E0C1010010F0B5574636
:1014E0004E46DE464546E0B585B006000091170041
:1014F000EFF3108B72B66A4A1368002BFCD0BFF36F
:101500005F8F0025674B5D579A46002D00DAA9E0F2
:101510006B00654C01935B199B009846A146C14442
:101520004B4652469B7910361370604BB6009B6851
:1015300099590B1B2F2B33D95D4B994200D0ACE04E
:10154000019B42469C465B4B6544AD0063535A4B3E
:101550000232A218043B9B1A1B05584A5B0D651901
:1015600013436B80564B0121AB80FF23AB71009B73
:10157000EF71AB604B460B4319004C4B9B68995184
:10158000BFF35F8FBFF35F8F0022454B1A608BF371
:10159000108805B0F0BCBB46B246A946A046F0BDD7
:1015A00001200A008243D3798C46BB4231D845469C
:1015B000130044491B1B5B415943090D3D4B6353C9
:1015C0003D4B02356519043B5B1B1B053B4D5B0D19
:1015D0002B43AA464D466B800425AC465546E04455
:1015E000131F44441B1B1B055B0D1D434B46997188
:1015F00000999D8099604946DF71334B0143136028
:10160000BBE75800C01880002018C179B9422FD913
:1016100002000623D356002BF3DA02932B4B6146CC
:101620000393131D9A4604235B429C46E1445046B3
:101630004B461B1A1B055B0D9C46204B957198462B
:101640006346404603439380019B5A199200039BD3
:10165000A418A380029B1C4AA371009B2260E7711F
:10166000A3608AE701F052F9002553465D574FE722
:10167000908802934005131D9A46031561469C46C7
:101680004046D444634604302018181AE02300056D
:10169000400D1B0218430390C5E701F037F94FE7EF
:1016A000240100D0CC4C02201C5D012000ED00E0A4
:1016B000C101001000A1FFFF4C5D012000E0FFFF11
:1016C00001BDFFFFAAAA00000148804701BD00003C
:1016D000F0B5DE4657464E464546E0B50C0083B0B1
:1016E000EFF3108872B6634A1368002BFCD0BFF387
:1016F0005F8F614B61499A68030010339F00D55991
:1017000001938D4243D0A54254D05D4EAA1B2F2A8F
:101710003DD85C4B9B461B68994601231A009C46AA
:1017200082404B4613401F22994663460240934035
:101730009A4680225B4650469850BFF35F8FEFF386
:1017400005839B46002B37D0019B5B4501D001F000
:10175000DDF801232A009A439068844208D176E09C
:101760004B005B189B00F3189868844236D01A002F
:10177000062151560029F3DA844254D04B46002BFF
:1017800027D0C02251463F4B5200995019603A4B26
:101790009B68DD51BFF35F8FBFF35F8F0022354B36
:1017A0001A6088F3108803B0F0BCBB46B246A94665
:1017B000A046F0BD0D00EAE72A0063469A43906810
:1017C0008442D5D106201056130000280ADA0D00F5
:1017D00031E0802351462B4AD150D8E706201856D5
:1017E000002821DB42001118890074188B46A1687B
:1017F0009960E179D971062161569971002924DB3C
:10180000A488F11A640524155C44091909051E4CC5
:10181000490D2143998013181C4A9B001178F31835
:1018200099711070AAE713005946002914D1FF31AD
:1018300091711749918015490A789A71154A9B1B35
:101840005B415A43120D0A7098E71149E2E70620FE
:10185000105613000028C5DA0F4A1049D21A083A68
:101860005002400D014399800D4952080A43DA8025
:1018700084E7C046240100D000ED00E0C101001063
:101880001C5D012000E100E000E0FFFFCC4C0220E5
:1018900001BDFFFFAAAA0000565D012000F0FFFF76
:1018A00000F8FFFF10B58308040003202040FF2448
:1018B000054AC0009446844081409B0063441A68F6
:1018C000A2430A431A6010BD00E400E070B5012491
:1018D0000443EFF30581EFF3108C72B6214A1368CD
:1018E000002BFCD0BFF35F8F1F4B05001F4AED1A82
:1018F0006D416A43120D1E4D8900AE6852B2765892
:10190000A6421CD00621595691421CD0122159568C
:10191000914222D01E215956914220D02A21595657
:101920000324914210D0134B19781A708171BFF3C0
:101930005F8F00220B4B1A608CF3108870BDAB6870
:101940000D4C5C50EFE700246100091989005B1819
:10195000FF21997109499980E5E70124F4E7022400
:10196000F2E7C046240100D01C5D0120AAAA0000B5
:1019700000ED00E0CC4C0220C101001001BDFFFFD2
:101980001F2110B5091A0248FFF7ECFC10BDC04634
:10199000D84C022010B5084B084C82B001000093CF
:1019A000002205232000FFF799FC002801DB1F23FC
:1019B000181A02B010BDC04654AB0110D84C02201A
:1019C00070B504000E001500FFF7E8FC01002000D0
:1019D00000F006F8A680E580BFF35F8F70BDC046BB
:1019E000024B9C466144890001607047400000340E
:1019F00070B5114C114DAC420FD2FF262368002B5D
:101A00000CD0FFF7CBFC01002000FFF7E9FFA68018
:101A1000BFF35F8F0834AC42F0D370BDFFF7BEFC5C
:101A200001002000FFF7DCFF2671BFF35F8F083451
:101A3000AC42E3D3F1E7C046A0630120B0630120CC
:101A400010B50400FFF7AAFC01002000FFF7C8FF53
:101A5000FF232371BFF35F8F10BDC04610B5040094
:101A6000FFF79CFC01002000FFF7BAFFFF23A380D3
:101A7000BFF35F8F10BDC04610B504000120FFF713
:101A800099FC034BC3189B002360BFF35F8F10BD0D
:101A900040000034034B9C46614489000160BFF361
:101AA0005F8F7047400000340A4B1968EFF31080D5
:101AB00072B60A68002AFCD0BFF35F8F1B68BFF3C1
:101AC0005F8F00221A6080F3108840BF0020002141
:101AD0007047C046644C0220F0B5DE4657464E467D
:101AE0004546E0B587B0EFF30583032201251A4090
:101AF000954091008846A946B34B03925C58B34B7E
:101B00001D60B34B04934B46B24843630823E55E24
:101B1000002D37DAA3881BB2002B00DBADE0A379E0
:101B2000002B00D0EEE00823E05E002820DB43001D
:101B300062691B18DB00D3189E68DD68731C00D136
:101B400011E1A44801004144826A0B69B71A9B1A4B
:101B50009F4215D30123026A039883401A420FD093
:101B60009C4800F0BBFC8D4202DCCCD18642CAD935
:101B700040BF07B0F0BCBB46B246A946A046F0BD88
:101B80000E61EDE762696B0092465B19DB009A44D7
:101B900053469E68DF6800F0A1FC8F42BADC00D19A
:101BA00003E1002F00DAE8E05246534652691B6910
:101BB0009346049A934200D1D9E052460821605ED0
:101BC00052880004594610439847009001910099AB
:101BD000019A0B001000134300D1CEE013000A005D
:101BE000B61A9F41002806DB7A4800F077FC009E79
:101BF000019F36184F4153469E60DF6000229A5E77
:101C0000002A00DA86E7530099186069C900411874
:101C100002938B68C9689B46B94200DD7AE702D11E
:101C2000B34200D976E708239C46A444059565464F
:101C30002281A446029B2C0006E053009918C9009B
:101C400041188D68C968AB469B18DB00C318B942C0
:101C500006DC00D1B3E01C000023E25E002AECDACF
:101C6000230064469C4653461A806346059D1D80AA
:101C7000A3881BB2002B00DA51E72269EFF3108131
:101C800072B61368002BFCD0BFF35F8F0123A788C7
:101C90005B42A3803FB22369BFF35F8F00221A60CB
:101CA00081F31088002F00DA39E72300083322007F
:101CB0009A4666697B00DB19DB00F3189968504689
:101CC0008C460824115FDD68002910DB029306E0D2
:101CD000AB4244D00023E15E2000002906DB4C002B
:101CE0006418E4003419E368AB42F1DD029B07801D
:101CF00000201F5E1980002FDCDA1400A379002B6E
:101D000000D110E70023A37126000823E15E083606
:101D10004B1C00D12CE70800A246656902E03E009A
:101D20004B1C1AD04B005B18DB00EF180A008C46E6
:101D3000E95E7B881BB2002BF1DA01235B42DC17E2
:101D4000BB60FC60824205D0534631801B893B80DA
:101D500053461A8160464B1CE4D15446E5E6A3681D
:101D60006345B7D9C2E76B1C00D0EAE6F8E65B46EC
:101D700058461B69984700281BD153461B88226987
:101D80002381EFF3108372B611680029FCD0BFF3F2
:101D90005F8F514662880A8022696580BFF35F8F3A
:101DA0000021116083F31088B4E6864200D8F8E67B
:101DB000B0E65B461A685B680092019307E7B3459B
:101DC00000D848E74CE7C046FC3A02203C7005408A
:101DD000D91A00100040054070B52E4C2569002D21
:101DE00004D00A212C48FFF7FBFD70BD2B4E0321C8
:101DF000300000F051FBE660FFF7D0FA284B0322D9
:101E00009C46D02322701B061B6801216370254B62
:101E10006044A3600F238000206102206380636917
:101E20004942A18019800231198647311D835852D9
:101E300018315A5275325C3999521832013199521F
:101E4000183201319952183201319952083518323D
:101E50009D5202311832995218320131995218327A
:101E60000131995218320131995218320131995287
:101E70001832013199520C4B0C49DC60013035624B
:101E8000FFF702FB01210320FFF7C6FA084B1D6094
:101E9000A7E7C046645D0120644C02200040054075
:101EA00040000034FFFF1000FC3A0220D91A001055
:101EB0003860054000487047645D0120F8B50500B2
:101EC00018200F0001F002FB041E3ED0182138003C
:101ED00001F01AFB01216061280000F0EFFAE560D3
:101EE0000600FFF75BFAD022267012061268184B24
:101EF00062709C460122BBB2524260448000638102
:101F00009B1820612281A2806380002F0BD0790072
:101F10006269C919C9000F4B89181380013318323F
:101F20009BB28A42F9D10127B7400B4BB200300077
:101F30000A492F62D450FFF7A7FA01213000FFF7BA
:101F40006BFA074B9C4665442F602000F8BDC046E5
:101F500040000034FFFF0000FC3A0220D91A0010B4
:101F600038200000124B70B5040098421ED00123A7
:101F70000578C668AB400F4A3362B218136001217E
:101F80002800FFF749FA28000B49FFF7A1FB2900B9
:101F9000300000F08BFA00212278084B6069920033
:101FA000D15001F0D3FA200001F0D0FA70BDC04644
:101FB000645D012038300000D91A0010FC3A02207C
:101FC000F8B51F0008AB1B7804001600002B08D1E1
:101FD00000F08CFA32003B00121A8B41002B00DA21
:101FE00052E02269EFF3108072B61368002BFCD028
:101FF000BFF35F8F0223E15E63694A005218D2008B
:102000009B182269002936DB1D886580BFF35F8F2E
:102010000025156080F31088069A9E60DF601A61C3
:10202000079A5A615A8801325204520C101C002A35
:102030001FD082B25880080410432669EFF310873E
:1020400072B63268002AFCD0BFF35F8FA2881A8074
:10205000A1802369BFF35F8F00221A6087F3108885
:102060000A4923788C4601329A40E36863441A6037
:10207000F8BD0120DDE7BFF35F8F0023136080F31D
:10208000108801204042F3E70020F1E73C200000E7
:1020900070B501000469EFF3108C72B62068002857
:1020A000FCD0BFF35F8F02200D5E4C6968004019C1
:1020B000C00024180869002D36DB26884E80BFF347
:1020C0005F8F002606608CF31088E36063880498B5
:1020D000013320615B0405985B0CA26060611A1CEF
:1020E000002B1FD093B22804628018430A69EFF3D3
:1020F000108C72B61368002BFCD0BFF35F8F8B88F7
:1021000023808D800B69BFF35F8F00221A608CF3F0
:1021100010880B7801329A40CB6808498C4663449A
:102120001A6070BD0122DDE7BFF35F8F00230360FB
:102130008CF3108801204042F3E7C0463C200000A9
:1021400010B543890A1493421ADD53009B18426963
:10215000DB00D3180469EFF3108C72B62268002AF2
:10216000FCD0BFF35F8F5A88090494B2090C8A42ED
:1021700008D00369BFF35F8F00221A608CF31088C8
:10218000002010BD8022120214435C8001230269EA
:102190008371BFF35F8F002111608CF310880449B5
:1021A00002788C469340C268012062441360E8E7DD
:1021B0003C20000040787047F0B506000F00062470
:1021C0006442E517C646A4197D4100B582B08D4230
:1021D00014D811D000F08AF922002B00121A8B417A
:1021E000002B15DC002B44D03000390000F088F9BA
:1021F00002B080BCB846F0BD8442EBD90024002573
:1022000000F074F922002B00121A8B41002BE9DD3B
:1022100000F06CF922002B00121A8B41002B0ADB14
:1022200000230193144B2200009314482B00FFF766
:102230002FFF0130D8D0A04629000024104A1148B1
:10224000536A994204D8956A4545CDD29942CBD17B
:102250000568EFF3108C72B62B68002BFCD0BFF32F
:102260005F8F0368BFF35F8F1C608CF3108820BF03
:10227000E6E7002AB8D0CBE7A91A0010645D012078
:1022800000400540644C0220F0B5C64600B582B05F
:10229000040000F02BF9FA2206000F0020000023B2
:1022A0000021920001F018F88019794104000D1EF8
:1022B00002DA01242E4D644206267642F7173619BB
:1022C0006F41AF4214D811D000F010F932003B003A
:1022D000121A8B41002B15DC002B46D02000290060
:1022E00000F00EF902B080BCB846F0BDA642EBD9B2
:1022F0000026002700F0FAF832003B00121A8B414A
:10230000002BE9DD00F0F2F832003B00121A8B419D
:10231000002B0ADB00230193164B32000093164872
:102320003B00FFF7B5FE0130D8D000233900B0469E
:102330009C46124A1248536A994204D8966A464506
:10234000CCD29942CAD10668EFF3108772B63368CF
:10235000002BFCD0BFF35F8F0368BFF35F8F66462F
:102360001E6087F3108820BFE5E7002AB6D0C9E7D2
:10237000FFFFFF7FA91A0010645D012000400540A7
:10238000644C0220F0B557464E46DE464546E0B561
:1023900006000F0085B0EFF3058399468B46002BAE
:1023A00012D0384900204B6ABB4206D38A6ADB1B35
:1023B000591E8B41B2424041184305B0F0BCBB46A8
:1023C000B246A946A046F0BD2F4B9A46DB68984618
:1023D00053461B784046039300F080F84246039B27
:1023E000040004339B009B580D001B1A3900300079
:1023F000001BA941894510DC0DD020BF214A0020D7
:10240000536A5B45D9D3926ADB1B591E8B41B2429A
:1024100040411843D1E78342EFD900F067F832001A
:102420003B00121A8B41002B1ADB00230193174B40
:102430003200009350463B00FFF72AFE011E0FDDDD
:10244000104B5A6A5A451BD39B6AB34216D3504667
:10245000FFF776FE0B4A0020536A5B45ADD3D2E707
:10246000084A0020536A5B45A7D30020926ADB1B11
:10247000B24240415A1E934118439EE75A45E6D165
:1024800020BFE4E700400540645D0120A91A001068
:10249000004870470040054010B5024A0248FEF768
:1024A000FBFE10BD70AB0110CC8D012010B50248B1
:1024B000FEF758FF10BDC046CC8D012000B5054B7E
:1024C00083B00093002203230348FEF707FF03B005
:1024D00000BDC04694AB0110CC8D01200300416AC1
:1024E0000A00986A596A8A42FAD17047034B596ABE
:1024F0000A00986A596A9142FAD170470040054033
:10250000064A536A9942FCD807D1044B02E05A6A42
:10251000914202D19A6A9042F9D870470040054032
:10252000F8B5DE464E4657464546E0B58B460500B3
:102530000A991800160000F055FB0A9B6C001F0258
:10254000324B64199C46A4006444636881469F42F0
:1025500000D967602B1FDBB29846012B30D9C0230E
:1025600080229B01E31812011A60294BAD005959D2
:102570009A4600291BD17301E026226853401E4071
:10258000802342465B01E3181E60012A30D9802374
:1025900080229B01E31812011A6053464A46676085
:1025A0005A51F0BCBB46B246A946A046F8BD586990
:1025B00000F018FB013043001B18033BFDD2DAE7A3
:1025C0005B46012BCBD1C02303229B01E3181A6089
:1025D000023AA3681A42FCD07301E0262268AD00DB
:1025E00053401E4080230A4A5B019246E3181E6056
:1025F0005A462168514003220A401A6001225B4674
:102600009A40A3681A42FCD0C1E7C046008000404F
:10261000D88D0120F0B546464F46D646C0B51F00BE
:10262000344B44009C462418A400644463688846E4
:102630001600FF2B02D880235B006360031FDBB210
:102640009A46012B30D9C02380229B01E318120146
:102650001A60294B85005959994600291BD17301ED
:10266000E026226853401E40802352465B01E31857
:102670001E60012A30D9802380229B01E3181201B9
:102680001A6080235B0063604B465F51E0BCBA4632
:10269000B146A846F0BD586900F0A4FA01304300E5
:1026A0001B18033BFDD2DAE74346012BCBD1C023F5
:1026B00003229B01E3181A60023AA3681A42FCD075
:1026C0007301E0262268850053401E4080230A4A99
:1026D0005B019146E3181E60424621685140032287
:1026E0000A401A60012342469340A2681342FCD07C
:1026F000C1E7C04600800040D88D0120014B80001A
:10270000C0587047D88D0120F8B5040021481E003C
:1027100017000D0000F066FA0100380000F062FAC0
:10272000069B36041B031E432368002B20DB1A4B39
:102730001A49E3185A1E93418022920194465B4243
:102740001B0B174A1B0363441360164A13601F00D8
:102750000A689743FBD1144B2560E2182123A0603F
:1027600013602368002BFCDA0823E6601360F8BDD1
:102770003F2322681340AB42D9D1A3681B051B0D30
:102780008342D4D1EE22E368D2021340B342CED1C9
:10279000EDE7C046001BB7000040FDBF08C0004089
:1027A00000E0004000F000400430000010B580243C
:1027B0001C4BE4051C6000281AD001231A4C184356
:1027C0001A4BDC611A4C44401C62596298628021A9
:1027D000144BC9051960174817490860E021C9045E
:1027E0001960002A07D18022144B12061A6010BD0E
:1027F0000E4BD861EBE753019B1A9B009A1880237C
:1028000012015B049A4209D213000D490B60074B79
:102810005A608022094BD2051A60E8E7094B1A007A
:10282000F3E7C04600B00540D3C007B000800540C4
:102830002D3FF84FFCFF01000820014000A005409B
:10284000CCA00120FFFFFF008023024A9B000B4326
:10285000D362704700800540002310B50100988ABC
:102860001B8B984710BDC046162310B50100188871
:1028700002331B88984710BDF8B54746CE4680B551
:102880000F1E18D014239946043304000025012696
:1028900098464B461888434621681B88984701C4D0
:1028A000431E984101350640AF42F2D13000C0BC12
:1028B000B946B046F8BD0126F8E7C046002370B51A
:1028C00004000D00988A05491B8B984703000020DF
:1028D000002C01DB0130A040290098475542000040
:1028E000AA23064A1B0113608D235B00D3600449B1
:1028F000044B19605368002BFCDA7047004002401B
:1029000000B0FA00006002407047C04610B50148B0
:10291000FEF794FCA8AB011070B5074D074EB54209
:1029200009D20024013E761BB60808CD9847230043
:102930000134B342F9D170BDD0A701100CA8011029
:1029400070B5074D074EB54209D20024013E761BF3
:10295000B60808CD984723000134B342F9D170BDC1
:1029600004A801100CA80110054B064A06491A607C
:10297000064A074B1A6010000B689843FBD170475A
:1029800000E00040BFCDFBFE08C00040FE7F3C00E1
:1029900000F00040044BDB6C002B03D18022034B82
:1029A000D2021A607047C046000011504C201150EE
:1029B000044A054B1A60054A1368DB018033FBD1DA
:1029C0007047C046FFFFFF0100F0004008C0004014
:1029D0004022034B9A675A671A67DA667047C04607
:1029E00000F0014010B5FEF7F7FC10BDF8B527491F
:1029F000274C284D641AA6103200302E00D9302200
:102A00002800920000F0C0FDBC2C3BD830202F23C2
:102A10002C196407204A801BE40F9B1B052B16D939
:102A20003700002C02D0B300771CEA50001B33198A
:102A30009B004108EB18C900C9181A605A60083396
:102A40009942FAD1012303421CD09843C619B3001E
:102A5000EA50731C2F2E15D09B00EA50B31C2E2E6B
:102A600010D09B00EA50F31C2D2E0BD09B00EA5097
:102A7000331D2C2E06D09B00EA50731D2B2E01D047
:102A80009B00EA50054B9D60F8BDC0460001001058
:102A9000C001001000000020C101001000ED00E0A6
:102AA000002310B5294C82B0A367FFF719FF01225C
:102AB000274B1A60636C012BFCD10322254B1A6053
:102AC000224A936B012BFCD1013300930121224A4E
:102AD00022480433FFF718FE052301210093204A02
:102AE0002048FFF711FE0022022104201E4BFFF7B1
:102AF00091FD0022012105201C4BFFF78BFD0022D8
:102B0000002107201A4BFFF785FD00220021082035
:102B1000174BFFF77FFD8023DB000093002200218D
:102B20000920134BFFF7FCFC0022104B002106206C
:102B3000FFF770FD0420FFF7E1FD0E4900F052F8A9
:102B400001000020FFF780FE02B010BD00800040B1
:102B50003CB0004030B00040002F68590080024077
:102B6000008C864700C00240001BB7004059730725
:102B7000006CDC0240420F0001480421014B184761
:102B8000805D012079280010014B9B6818470000E8
:102B9000805D0120124A936F9B0815D29066D16622
:102BA000002905D0FFE7FFE7FFE7516F106F70477F
:102BB00004B580210906C2175140002800D0C8433F
:102BC00017F09EFD002104BDF0B5146E556E576FD1
:102BD000166FFFF7E3FF1466556657671667F0BD7B
:102BE000000000D0114A936F9B0813D21066516603
:102BF000002905D0FFE7FFE7FFE7516F106F70472F
:102C000004B5002801D00020C04317F079FD002151
:102C100004BDC046F0B5146E556E576F166FFFF7C2
:102C2000E5FF1466556657671667F0BD000000D0D3
:102C300094464A4A926F9208624601D228E0C04602
:102C4000F0B5464E346E756E776F366F00F020F833
:102C50009446424A14665566576716676246F0BD49
:102C600094463E4A926F9208624601D254E0C046B2
:102C7000F0B53A4E346E756E776F366F00F04CF8E3
:102C80009446364A14665566576716676246F0BD25
:102C9000002B24DB11D000293EDA00B5C9434042A5
:102CA00000D1013100F038F8C943404200D1013170
:102CB000DB43524200D1013300BD002AEBD1002892
:102CC00001D1002905D00020C90FC90701D1C04397
:102CD000410800B517F0FCFC0022002300BD00B540
:102CE00000290ADBDB43524200D1013300F014F823
:102CF000C943404200D1013100BDC943404200D127
:102D00000131DB43524200D1013300F005F8DB43CF
:102D1000524200D1013300BD002923D1002B18D12C
:102D2000002A0CD0BC460D4F38667A66002100237D
:102D3000FFE7FFE7FFE77A6F386F674670470028C5
:102D400001D00748010000B517F0C2FC00220023A3
:102D500000BD02000B00002000217047000000D0E1
:102D6000FFFFFFFF002B00D0BFE0130C28D1002A8B
:102D7000E7D080B4114F39667A66FFE7FFE730B4D9
:102D8000040C7B6F396F1B0423433B667A66FFE7B5
:102D9000FFE7FFE7C04684B27B6F3D6F1B04234310
:102DA0003B667A66FFE7FFE7C04600232C042D0C44
:102DB0007A6F386F00196941B0BC7047000000D0CD
:102DC000F0B594460025140E01D112020835140FF7
:102DD00001D112010435940F01D192000235D40FB4
:102DE00001D152000135D40B0134254F7C66254CAE
:102DF0003C660E0C93B2FFE7FFE7FFE73C6F6643CC
:102E0000360C7703BE467343DF0B5B04C01AB9412F
:102E1000130C7343DB18C91ACE086643360CB6444C
:102E200093B273431F0F1B01C01AB941130C7343B4
:102E30001F0B1B05C01AB941860D8F023E43664326
:102E4000360C092D24DB520A7243801A7703460A96
:102E50006643360C16235B1BDE40DF40BF19644619
:102E60006643821B7046043506330100D940A840F2
:102E7000C01900D30131A24206D20023F0BD0000E8
:102E8000000000D0FFFFFFFF121B0130F3D3F1E77A
:102E900009277F1BFE406446A2B27243801A00D20B
:102EA0000139220C7243130C1204821A99410B004F
:102EB0007046043513370100F940A840801900D34B
:102EC0000131002B02D1A2420AD2F0BD013000D361
:102ED0000131121BFAD2013BF8D1A24200D2F0BD5F
:102EE000013000D30131121BF7E7F0B51C0C00D004
:102EF00080E00CB400251C0A04D11B02160E3343DB
:102F0000120208351C0B04D11B01160F33431201AA
:102F100004359C0B04D19B00960F3343920002357D
:102F2000DC0B02D192185B4101351C0097186441FB
:102F30000134464F7C66464C3C660E0CFFE7FFE7CB
:102F4000FFE7C0463C6F6643360C7703BE4697B238
:102F50007743C01B00D20139C01B00D201399FB298
:102F60007743C91BC91B170C77437E04FF0B801BDB
:102F7000B941CE086643360C0C2D33DBB644120B38
:102F80001F053A431B0B97B27743C01B00D2013990
:102F90009FB27743C91B170C77433E043F0C801B3D
:102FA000B941860D8F023E43664329277F1BFE40B1
:102FB0000C3D7746AF40BF1930BCA2B2ABB27243F2
:102FC0007343801A9941220C7243130C1204801A25
:102FD000994102000B000137001BA941F9D2781E6C
:102FE0000021F0BD0C277F1BFE4077467F0BAF40D2
:102FF000FF19E0E700245D1C07D0144F7D66396699
:10300000FFE7FFE7FFE7FFE73C6F95B29EB265433E
:103010006643401BB141150C1E0C654366433604E4
:103020002F0C3E432D04401BB141994204D20200B3
:103030000B0020000021F0BD01D19042F7D3801A8F
:10304000994101349942F2D3F6E70000000000D024
:10305000FFFFFFFF48404140484018B4134B5B68F6
:10306000019308BD18B4114B1B68019308BD944629
:103070000F4A926F920805D2624618B40B4BDB6878
:10308000019308BD0A4AF0B5146E556E576F166F5E
:103090006246FFF7F2FF064A1466556657671667E1
:1030A000F0BD18B4014B9B68019308BD90650120E9
:1030B000000000D0FFB550404240504059404B40C6
:1030C000594000E0FFB5154F4C00640D03D0BC42E1
:1030D00004D10C0314D80020090D09055C00640D0F
:1030E00003D0BC4204D11C030AD800221B0D1B05CF
:1030F00001264B4009D44B4003D58B4200D182427C
:10310000FFBD9942FCD19042FFBD0B43DB18034346
:103110001343F5D0C9434918FFBD0000FF07000065
:1031200000B5FFF7CFFF804100BDC04600B5FFF7F7
:10313000C9FF01D9002000BD012000BD00B5FFF787
:10314000B9FF01D9002000BD012000BD00B5FFF787
:10315000B1FF804100BD012040054A00121804D88B
:103160005A00121801D80020704701207047000053
:103170000021002805D17047C1174840401AFAD0F5
:10318000C90713B5064B1B6898470CBC441CA240EA
:103190001005120B0349091B09051943114310BD02
:1031A000E84A02201F04000010B54C00620D802385
:1031B000D218DB00D21A5B057E2A10DD9E3A13DAA4
:1031C000CC170903490819435242D1406400013425
:1031D0001532202A05DAD0400843604310BD002094
:1031E00010BD0846604310BDC80FC018013810BD9F
:1031F00018B4024B5B6A019308BD00009065012082
:1032000010B50148FEF71AF8B4AB0110132370B5DE
:103210001D78012D19D014DD1D48FFF725FB060090
:103220001C48FFF721FB1C4C80223100200000F0DD
:10323000ABF9022D06D01948FFF70EFB184B1860AA
:1032400070BD154C174BA364F5E7174B124C236068
:103250006360A360E36023616361A361E361236250
:103260006362A362E36223636363A363E363236430
:103270006364A364E36423656365A365E365236610
:103280006366A366E36623676367A367E367D9E7BB
:103290005344000053460000906501204C33000069
:1032A000E84A0220AD3200100132001007B5604636
:1032B00001880A0A0230DF2AFAD1C9B2820804D38F
:1032C000028840880004104300E00068014A505022
:1032D000039007BD9065012051434343C9188C46B4
:1032E000110C83B24B4310B4040C614392B280B210
:1032F000504362431C041B0C001910BC59411304B9
:10330000120CC018514161447047000048404140D0
:1033100048400E4B5B6818470C4B1B6818470C4A1B
:10332000936F9B0802D2094BDB681847F0B5146E07
:10333000556E576F166FFFF7F6FF054A1466556610
:1033400057671667F0BD014B9B681847EC4A02208F
:10335000000000D007B548404140484001E0C04669
:1033600007B54200120E03D0FF2A03D1420218D83B
:10337000C00DC0054A00120E03D0FF2A03D14A0235
:103380000FD8C90DC9050122414005D4414001D5DE
:10339000814207BD884207BD0143491801D0C0439F
:1033A000001807BD00B5FFF7DBFF804100BDC04638
:1033B00000B5FFF7CFFF804100BD0000C10FC90776
:1033C00000D54042002817D0F44603B40B4B1B68CD
:1033D000984706BC81409E384042803107D20B0698
:1033E00007D04900490AC00510430843604701302F
:1033F000F8E7490A8902F5E770470000E84A022029
:10340000014BDB6F18470000EC4A0220014BDB6CDC
:1034100018470000EC4A022010B50148FDF70EFFE6
:1034200078AA0110132310B510481C78FFF71CFA76
:103430000100012C0AD003DD80220D4800F0A4F821
:103440000C48FFF709FA0C4B186010BD084C5422C9
:10345000200000F099F82200084980322368002BF0
:1034600000D1216004349442F8D1E9E753460000CA
:10347000EC4A02204C330000E84A022019340010C4
:10348000430070B51B0E822B04D9002819DBFE20E7
:10349000800515E0002B02D080231B04C018FFF725
:1034A000B5FFFE218905041CFFF733FFFE21051C33
:1034B0008905201CFFF730FF011C281CFFF72FFF98
:1034C00070BD0148FCE7C046000080BF70B5040035
:1034D0000A4E300017F06CF9200016F071FB050061
:1034E000300017F0EDF8002D05D0054B2C199C424B
:1034F00001D8280070BD0348FDF7A0FEA06301209D
:1035000000000420CCAB0110F8B506000C000C4FF5
:10351000380017F04DF92100300016F0F1FA0500DF
:10352000380017F0CDF87443002D05D0054B2C1949
:103530009C4201D82800F8BD0348FDF77FFEC04635
:10354000A063012000000420CCAB011070B5040082
:10355000054D280017F02CF9200016F03BFB280041
:1035600017F0AEF870BDC046A063012001480421E9
:10357000014B1847905D012079280010014B1B6812
:1035800018470000905D0120014B5B681847000060
:10359000905D01209A4200D2885470477047C0461F
:1035A000F8B55746DE464E464546E0B599460A9B75
:1035B00007009A460D9B884693460B9C9B073BD180
:1035C0000C9B9C423DD21E1B0B9415000C005E44CC
:1035D0002A004B46013521002020B847B542F7D1DB
:1035E000A0460B9C002C20D0454636195346321B72
:1035F000013C185D29004B46B847002CF6D12B0042
:10360000350098460D9B9B070FD55B46EC1A0C9B2B
:10361000A3420AD9464698462A004B46310020204C
:103620000134B84701354445F6D32800F0BCBB4609
:10363000B246A946A046F8BD16001500002CD3D10D
:10364000E0E716001500002CCED1EEE7F0B54546B8
:10365000DE4657464E46E0B585B09C4610AB1B781B
:10366000149F934698460F9C129E139DBB074CD403
:10367000002D42D1B44248D201233B4099460E9BD3
:10368000013B9A46302304E0524601341355A642CA
:1036900001D9202CF8D14B46002B00D183E00E9BA2
:1036A000013B99463023A54205D82EE04A46013415
:1036B0001355AC4229D0202CF8D1FB060CD57B0544
:1036C00054D4A64263D0A54261D0119B102B50D098
:1036D000022B57D0202C32D1202301930E9B5A4627
:1036E0000093039763460295FFF75AFF05B0F0BCBD
:1036F000BB46B246A946A046F0BD01233B409946D1
:1037000001233B422AD1B442B9D3FB061CD57B0529
:10371000DBD4002CD5D1119B102B5BD0119B022B3D
:103720006BD0302301240E9A13704346002B10D126
:103730007B073ED52B260E9A631C1655CDE723003A
:10374000013430260E9AD654202CC5D04346002B87
:10375000EED02D260E9A631C1655BEE74346002B6D
:103760002FD0013DB44200D289E798E7119B102B7E
:10377000B2D1BB0637D5202CAED058230E9A1355A4
:103780000134A7E7202CA7D02300013407E0631EF3
:10379000012CC0D0119A102A31D0022AD1D1622630
:1037A0000E9AD65496E7FB06CED57B0500D488E763
:1037B0008BE723003E0790D520260E9A013316553D
:1037C0008BE70C233B405A1E9341ED1AB44200D2C2
:1037D00055E764E7BB060ED478230E9A02241370D3
:1037E00030235370A1E7202C00D175E778230E9A7F
:1037F000135501346EE75823EFE76033EDE70E9A77
:10380000A61E91464E44BA0602D55822327098E759
:103810007822327095E7C04610B5002800D110BD5F
:1038200001F0ACFCFBE7C0460B0010B5002802D04D
:1038300049681B68984710BDF0B55746DE464E46AE
:103840004546E0B595B083460F00924698461E9ACD
:103850001F9B10001900209EFFF77DFC002800D060
:10386000EAE11E981F990122C54B5242FFF758FC0E
:10387000002800D014E11E981F990122C14B52422A
:10388000FFF764FC002800D0E9E01E981F99002291
:10389000BD4BFFF75BFC002800D0C8E01E981F99C5
:1038A0000022BA4BFFF73CFC002800D0BFE01E9876
:1038B0001F9900220023FFF733FC002800D0E4E02A
:1038C00000230B93229B5B0500D4062600243023A3
:1038D00007E0172106AA013452181355013E202C87
:1038E00001D0092EF5D81E981F99FFF75DFCA84B53
:1038F000F2009B181A685B68050008920993FFF7AD
:103900003BFC02000B001E981F99FFF7A6FB089ACC
:10391000099BFFF7C6FB06900791FFF769FC8146FC
:10392000FFF726FC02000B0006980799FFF795FBAE
:103930000022984B06900791FFF708FC002800D161
:103940000DE101239C46E1444846FFF711FC0200CB
:103950000B0008980999FFF7E9FB002802D0002323
:1039600099460135002E00D1D9E006954D46B9465D
:1039700014E006AA944617230A2163442800013460
:103980001F19FFF72FF93031397028000A21013E45
:10399000FFF728F9092D00D817E10500202CE8D100
:1039A0004F46069D20240CAE06AA17239446634476
:1039B00099465B46B34606930FE04B4628000A2122
:1039C0000134E618FFF7E6F83031280031700A219B
:1039D000FFF7E0F8051E00D1E4E0202CEDD1069BB6
:1039E0005E469B460323229A1340012B18D1219B4C
:1039F000002B15D00B9B002B00D1FDE0219B013B40
:103A00002193202B0CD93023219A07E0172006A9F7
:103A1000013409180B55944200D3CCE0202CF5D189
:103A2000229B01940393219B0096029322E0229B08
:103A300052460493219B3900039358461E9B1F9CBA
:103A4000029600930194434600F04AF904002000D6
:103A500015B0F0BCBB46B246A946A046F0BD229BBD
:103A60005B070FD403224C4B2299019203912199B9
:103A7000009302914346524639005846FFF790FDA5
:103A80000400E4E70422454BEEE71E9A1F9B00204A
:103A90000021FFF7E2FA01231E901F910B9311E71B
:103AA000229B54469B0711D1219B042B0ED9219BAD
:103AB00055469C465E46043C64442A004346013514
:103AC00039002020B047A542F7D1B346344D260037
:103AD0002B1F99465B46A3461C003200E8784346FC
:103AE0003900013DA04701364D45F6D123005C4623
:103AF0009B46229B04349B07A9D55346219AE31A7F
:103B00009A42A4D95E46150022004346390020207F
:103B1000B04753460134E31A9D42F5D897E7280091
:103B2000FFF72AFB02000B001E981F99FFF795FA7A
:103B30000022184B06900791FFF7F2FA0CAE00280E
:103B400000D031E7069807990022124BFFF7FEFAE2
:103B5000002800D028E7012301359D4324E70022F7
:103B6000069807990B4BFFF7DBFA002800D0F9E61F
:103B70004B46002B5CD101239C46E144F2E6C04653
:103B8000FFFFEFFFFFFFEF7F65CDCD4165CDCDC1DD
:103B9000F8CC01100000E03F20AC011018AC01107F
:103BA00028AC0110069B5E469B460323229A1340D5
:103BB000012B00D181E0202C00D131E70B9B002BA1
:103BC00027D02D23335501342AE74F46069D202C5C
:103BD00000D1E7E63022331907E0172006A90134A7
:103BE00009180A55202C00D1DCE6A342F5D12E227B
:103BF0000CAE0134F254D7E60C23229A134257D06C
:103C0000219B013B2193A34200D9FCE6202C00D14B
:103C100006E7229B5B0703D52B2333550134FFE6D0
:103C2000229B1B0700D4FBE6202333550134F7E623
:103C3000DB0700D496E69EE7229B55469B0711D1F1
:103C4000219B032B0ED9219B54469C465E46033D87
:103C5000654422004346013439002020B047AC427D
:103C6000F7D1B346B9465F461C4EEC1C2A00B0782B
:103C7000434649460135B847013EAC42F6D1229B46
:103C8000BB464F469B0700D4E1E65346219AE31A10
:103C90009A4200D8DBE65E46150022004346390012
:103CA0002020B04753460134E31AAB42F5D3CEE6A9
:103CB000219BA34200D9A6E6B2E6219B002B00D1AE
:103CC00079E70B9B002B97D0219B013B21939C42D2
:103CD00000D298E6202C00D073E7A1E624AC0110B6
:103CE000F0B5DE4657464E464546E0B599B08146AA
:103CF0008B4692469846229A239B10001900FFF7A4
:103D00002AFA002800D0CAE0229823990122824B87
:103D10005242FFF71BFA002800D0C0E022982399F6
:103D200001227E4B5242FFF7FBF9002800D0B6E09B
:103D30002298239900220023FFF7F2F9002800D0EF
:103D4000C9E1229B239C0893099408980999802330
:103D5000269ADB001A400D928022269C1201144004
:103D600022000B94269C07000E001C4200D0ADE000
:103D70000B00034300D0D5E0002A00D00AE2220065
:103D800006332493022313400C930223134200D0E2
:103D900002E2259B042B00D20FE2043B0B9300238D
:103DA00004250A930022229823990023FFF7B8F9EB
:103DB000002800D003E25A4B269A134004930B9B31
:103DC0000393249B0293089B099C009301945946FA
:103DD000434652464846FFF72FFD02002020269B0F
:103DE0001F27034059424B415B421840531C089324
:103DF000594643464530C8470A9AD317D4185C4001
:103E0000D30F0A936B1E0B9308AB9C4600256744A7
:103E100001E0202D0FD020000A21FEF7E3FE01353E
:103E20007E193031317020000A21FEF7DBFE2600BA
:103E30000400092EEDD8052306930B9B59460593E4
:103E4000002304930A3303930A9B4846029310AB62
:103E50000093089A43460195FFF7F8FB0C9B002B53
:103E60002DD05346C41A259BA34228D94D465F4600
:103E700081461E00534639001A192020434601345A
:103E8000A847A642F6D8534648462599C21A013299
:103E90000023914200D386E1013018180FE0269BE1
:103EA0000493259B0393249B0293229B239C0093C2
:103EB00001944346524659464846FFF7BDFC19B0A7
:103EC000F0BCBB46B246A946A046F0BD01432BD18B
:103ED0000B9B2200002B00D154E700230A93249B64
:103EE0000A9A0024934200DD85E12298239900225A
:103EF0000023FFF715F9002800D035E1269B084A7A
:103F000002941A408023DB0013430493259B039300
:103F1000089B099CCBE7C046FFFFEF7FFFFFEFFF49
:103F2000FFF7FFFF06232493B44B70009C46400D1F
:103F30006044FFF721F9B24AB24BFFF7B2F8B24A38
:103F4000B24BFFF78FF83603B14B360B3343040007
:103F50000D00380019000022AE4BFFF77EF8AE4A84
:103F6000AE4BFFF79EF802000B0020002900FFF780
:103F700079F8FFF719F90A90FFF7FEF8A84AA94B5C
:103F800004000D00FFF78DF80022A74BFFF76AF839
:103F9000FFF70AF9A54A0600A54B20002900FFF704
:103FA00080F8040030000D000C96FFF7E5F8A14AF8
:103FB000A14BFFF776F802000B0020002900FFF765
:103FC0004CF802000B0006000F00FFF76AF8320001
:103FD00004000D003B0030003900FFF743F80022D9
:103FE0000E900F91954B20002900FFF740F800221A
:103FF000934BFFF737F802000B0020002900FFF772
:1040000036F800228F4BFFF72DF802000B0020003E
:104010002900FFF72CF80D008021040032003B003E
:104020000020C905FFF719F802000B002000290045
:10403000FFF718F802000B000E980F99FFF717F81A
:104040000022734BFFF70EF87F4B0C9C9C46644498
:1040500000222305FFF725F806000F0002000B00E1
:1040600008980999FFF75CF800280AD00A9B3000ED
:10407000013B39000A930022714BFEF7F8FF06005E
:104080000F000A9A330063323900C62A12D802227E
:104090002698042510400B9A0C90002A25D1259BC8
:1040A000042B05D9002800D0A1E0259B043B0B93ED
:1040B000042541E00222269810400B9A0C90002A19
:1040C00012D1259B052B76D9002872D1259B052579
:1040D000053B0B9334E0802212069446229B089302
:1040E000239B6344099330E605250B4300D1F6E694
:1040F00008980999554A564BFFF720F8002808D030
:10410000089809990022534BFFF70AF8002800D0BD
:10411000E5E6249B002B1CD00D9B002B19D0249B83
:10412000013B2493259BAB4204D90C9B002B5AD016
:1041300002230C9300230B930A9B002B00D131E642
:104140000898099932003B00FEF791FF0890099109
:1041500028E6259BAB42EDD90C9B002B43D00023D6
:104160000B9302330C93E7E78020269B3A4A000624
:104170001A40802384460294089C099D2900DB0094
:1041800013430493259B6144220003930B00009288
:1041900001938EE60524A8E600230B930A930233CD
:1041A00004250C93FEE553468C46013B63441B1AE1
:1041B00072E602230C930525C2E70423EDE5802077
:1041C000089E099F000639008446269A224B6144C6
:1041D000134004930B9B32000393249B02930B0028
:1041E00000920193F3E5259B5B1B0B93A4E702234D
:1041F00004250C93A0E79C1A013C76E601FCFFFF26
:10420000FB799F501344D33FB3C8608B288AC63FC5
:104210000000F03F0000F83F61436F63A787D23F83
:1042200071A379094F930A400000E03F1655B5BBD2
:10423000B16B0240EF39FAFE422EE63F00002C40FF
:104240000000244000001840FF0300002D431CEB39
:10425000E2361A3F80842E41FFF7FFFFF0B5DE46BD
:1042600057464E464546E0B5A5B01E002E9B9246E9
:104270000C93CD4ACD4B80468B461A60002900D165
:10428000EAE1002330789946002800D1ECE1C84BE0
:104290004C460B93C74B454657460E930AE0631CAA
:1042A000984622003B005946A847444630780028EB
:1042B00000D187E001362528F1D108239A46043B36
:1042C0009946023B9846013B00229C460D9430786B
:1042D000711C0300203BDBB2102B03D80B9C9B000E
:1042E000E3589F460300303B89460D9C092B3AD981
:1042F000002398462A2800D1C1E000239A462E28A0
:104300004BD00300683BDBB2122B1ED80E999B00EA
:10431000CB589F4663460E001A43D8E743460E002B
:104320001A43D4E74B460E001A43D0E710230E0081
:104330001A43CCE753460E001A43C8E780235B00BC
:104340001A43FF3B9C467078E1444E4667284FD89D
:104350002428A4D90300253BDBB2422B9FD89649E1
:104360009B00CB589F46002394461E0000E001317D
:10437000B3009B195B001E180878303E0300303BE9
:10438000092BF4D90123624689469C460023B04696
:104390009A460E00E1442E28B3D1302180204942B4
:1043A0008C46C000024370784B468444614609291C
:1043B00000D86CE12A2800D17AE101239C464E46C0
:1043C000E1449EE7A146A846BA46CA4503D8012360
:1043D0005B425344994653464A4659460020C047DB
:1043E000200025B0F0BCBB46B246A946A046F0BDB1
:1043F0000300693BDBB20D930F2B00D94FE701217E
:1044000099408C466D49894661464B4619400F914B
:10441000634649460B4200D028E10D9B0A2B3AD057
:10442000072B00D03BE70C9B190008C98846002BDE
:1044300000D14BE121200243914614A98C461F2252
:104440000F2162448C4651460D950C91A2461500F1
:104450000F9902E020290CD0130064461C40200074
:104460003730092C00D80738013168541A090F2B4E
:10447000F0D80C9B54460D9D9A460F9133E10C9B4E
:1044800002CB8846002947DB0C9301239C467078B9
:104490004E46E14431E70C9B02CB14935346002B6C
:1044A00000D138E19C4608780B000C908C44002821
:1044B00001D100F098FC89466146944603E05A78A1
:1044C0000133002A01D08B42F9D1494662465B1A7A
:1044D0000C900F93530500D520E1022318001040E3
:1044E0000D90134200D1CBE30D930B1BB1469A46BE
:1044F0005E460C9822003B003100A8475346013429
:10450000185D0028F6D1B3464E460D9B002B00D017
:10451000C7E1149B0C93C9E60C9301239C462838F1
:1045200049420243884670784E46E144E5E6707899
:104530006C2800D17FE180235B001A43FF3B9C463F
:10454000E14402E780239B001A4301239C467078D4
:10455000E144FAE67078682800D173E180231A43B9
:104560007F3B9C46E144F0E6672800D103E1472801
:1045700000D15AE1452800D15AE104920721424670
:104580000C9B0392073352468B43190002920CC9CD
:104590002800009201930C9122003B005946FFF73E
:1045A0009FFB040082E6C0465D420010C4A00120CB
:1045B00058CB01109CCB0110E8CB011041900000BA
:1045C000462800D1DBE00492072142460C9B03926F
:1045D000073352468B43190002920CC928000092FF
:1045E00001930C9122003B005946FFF725F9040086
:1045F0005CE6631C984622003B0059462520A847EC
:10460000444653E60C9B04330D93631C9946920772
:1046100000D422E10C9B2200187859463B00A847A1
:1046200043464444012B00D885E23300B8462E00AF
:104630005F4625004C469946220043460134390026
:104640002020B047AC42F7D12C00BB46350047468E
:104650004E460D9B0C9329E6DB4B307898460023A1
:104660009946002800D012E60024AEE66F2800D15B
:1046700088E000D80BE31023782800D1CFE09A43DC
:104680000A239C4600230F930A330D9380E056467D
:10469000B1008919490001330E181878303E010025
:1046A00030390929F4D9B2461E000133994628E66B
:1046B0000C9B023602CB8A46C9435046C9170840B4
:1046C00082460C933078731C99461AE6102310002A
:1046D000984311331843814680201300C0000340E3
:1046E000024200D1A9E64B460693082305935346A0
:1046F000049310230393002302930F9B2200019342
:104700001CAB009359463B002800FEF79FFF434631
:1047100004000C93CAE501235B42C3E60F9B53459B
:1047200001D953460F930223180010400D901342F5
:1047300000D1B7E10D93D1460B1B9A463300A1443B
:104740002E0022004D460C98B9465F469B4608E075
:104750004B463900541CB0475346185D002877D0AB
:1047600022009542F4D15B46BB464F46A946350030
:104770004C461E00C9E680231B011A43FDE6202398
:104780001A4320E708239C4600230F9308330D9318
:1047900080231100DB0019401A4200D116E10D23DD
:1047A0009A431000802302009B001A401492184282
:1047B00000D0C2E1802302005B001A4091460C9AAF
:1047C00004320F92184200D0B7E2430600D59FE1B1
:1047D000030600D419E30C9B1B880993002B00D01F
:1047E000FCE110339843002900D1F7E100239946FA
:1047F00043460593534604930D9B06900393002371
:10480000D2E0582808D0622867D102239C460023B2
:104810000F9302330D93BBE720231A43103B9C46B2
:1048200000230F9310330D93B2E780231B011A432B
:1048300020231A43A1E6C0239B001A43F31C994688
:10484000B07882E5C0231A43F31C9946B0787CE522
:1048500035005E46BB464F4657E64346012B00D81F
:1048600063E1631E43449A463300B9462E005F4617
:1048700055469B46A24622004B4601343900202073
:10488000B047AC42F7D135005E46BB464F46A14625
:1048900054460C9B4A46187859463B004444A84766
:1048A000D7E6A1460F9B984500D832E64444E41A67
:1048B0003300B8462E005F4625004C46994622003C
:1048C0004346013439002020B047AC42F7D12C00D8
:1048D000BB46350047464E461BE680231000DB00F2
:1048E00018401A4200D10FE1112118008A430D929D
:1048F0000D9A802311009B0019408C461A4269D101
:10490000802311005B00194089460C9904310F91F6
:104910001A4200D0CAE113005B0600D5F0E0130094
:104920001B0600D459E20C9B00229B5ED9175A1833
:104930004A4092B2D90F0C91002B00D1F9E110003E
:1049400014AA944642461F23149252466344A84632
:1049500016944D460400B946B2461F00159201E078
:10496000202D0FD020000A21FEF73CF901357E19D9
:104970003031317020000A21FEF734F9260004009E
:10498000092EEDD8149B4F46A94645469846159BDF
:1049900056469A46169C0D9B0693434605935346EE
:1049A00004930A2303930C9B02934B4601931CAB85
:1049B0002200009359463B002800FEF747FE0F9B5C
:1049C00004000C9372E4C0469D3500100C239A43FA
:1049D0001000E7E607220C9B07339343013294460D
:1049E0009C4462460C920CCBD90F0F9111001943D5
:1049F00000D191E0D9171391129151401091139960
:104A00005940119110981199129A139B801A99414B
:104A10001090119114AA002394464246994614928C
:104A200052461F336344A846B24616944E46109C25
:104A3000119DB94615921F0001E0202E10D02000D4
:104A400029000A220023FEF70BF9013630322B0031
:104A5000BA550D0022000400002BEED1092AECD833
:104A6000149B1094119545469846159B4F46B146A8
:104A700056469A46169C0D9B06934346059353460D
:104A800004930A2303930F9B02934B4601931CABA1
:104A90002200009359463B002800FEF7D7FD040092
:104AA000FFF704FC0F9B984500D8C1E18023DB0091
:104AB0000D9343460F9A1B199B1A994633002E00FB
:104AC0004D46B9465F469B460C9122004B46013449
:104AD00039002020B047AC42F7D143460C9901334E
:104AE0000F930B7835000C935E46BB464F46002B68
:104AF00000D10EE50D9B002B00D1F6E4002319E652
:104B00000C9B1B781A0015E710239A430D92EFE6D1
:104B10000C9B1B78099361E6002399460028AAD1D3
:104B2000002200231092119374E70C9B2200187846
:104B300059463B00A8474C468BE50C9AFA3BFF3B95
:104B400007329A430133994691444B460C931368BC
:104B5000526815921A4306D11032904300220992EE
:104B6000002900D081E06122810600D54122D2B225
:104B70000A9214AA91460A9A00210A3A14924246CD
:104B80001792524618925A460991B3461F311E0099
:104B90000F9B4944BA4619941A95002467469846D3
:104BA0008946159D16901B920AE03032D2B24B46D0
:104BB00001341A55A8454AD0202C4AD006000D00D1
:104BC0003A00002330002900FEF74AF8D2B2092A41
:104BD000EBD9149B9C466244D2B2E8E7612382067B
:104BE00000D54123DBB20A3B0C93434614A91F2294
:104BF0008C46159353466244A046B2464C461797DE
:104C0000A9461700099D0D9E1490169308E03033B5
:104C1000DBB201343B55B5420ED3202C0CD005003D
:104C200031002800FDF7DEFFCBB20929EFD90C9A3D
:104C300094466344DBB2ECE7159B4D46A1464446DF
:104C40009846169B564614989A46179FD0E5B74249
:104C5000B2D9179B57469846189B5E469A461B9BAF
:104C600009949B461698199C1A9D434605935346F2
:104C700004930D9B0690039300230293099B05E781
:104C80000F9B984500D914E701330F932DE41023AF
:104C9000110099430D91692800D0BAE080231000DB
:104CA000DB0018401A4200D122E61DE60C9B1B686F
:104CB000DA0F1100002B00D18CE0DA179818504061
:104CC00014AA914642461F23149252464B44A046D2
:104CD000A946169704006546B2461F000C9115922E
:104CE00001E0202D0FD020000A21FDF77BFF0135C8
:104CF0007E193031317020000A21FDF773FF260044
:104D00000400092EEDD8149B444698460C9BAC46F3
:104D10001900159B56464D469A46169F0D9B0291CB
:104D2000069343460593534604930A23039363462D
:104D30003CE6002800D02EE602E60C9B1B68994654
:104D4000002B03D110339843002938D16123820608
:104D500000D54123DBB20A3B0C93434616935346DE
:104D600014A91F228C4617932B006244A0464D467F
:104D7000B246189799461700149C0D9E159008E0AE
:104D80003033DBB201343B55B5420ED3202C0CD06E
:104D9000050031002800FDF725FFCBB20929EFD926
:104DA0000C9A94466344DBB2ECE7169B1494444699
:104DB0009846179B56464D469A461598189F434667
:104DC0000593534604930D9B06900393002302938F
:104DD000149BEBE50028A1D172E70C9B1B68D91747
:104DE0005A184A40A6E580231000DB0018409C4674
:104DF0000F901A420FD00220030013400F9310426D
:104E000019D00023A1460F934CE50C9B1B68099316
:104E1000E4E40A0034E40223180010400D90134229
:104E200000D03EE54346002B00D042E6FFF771FB81
:104E300001330F937FE463460D93F3E70CB430B571
:104E400085B008AC08CC064D0A000094010028008B
:104E50000394FFF703FA05B030BC08BC02B0184752
:104E60009535001010B50C0084B00394012402A9FC
:104E700002900093034813006242FFF7EFF904B079
:104E800010BDC0462938001010B5094A0300146847
:104E900084B0002C08D0012200910648524203A998
:104EA000A047012004B010BD00F0B2F90020F9E7DE
:104EB000C4A001201938001000BEFDE7094A030014
:104EC0001068002805D00849C3188B4207D8136022
:104ED000704706480449C31810608B42F7D9012077
:104EE0004042F5E7989C012000000420DC4C0220A1
:104EF00010B5FFF7E1FFC04670B5FDF70DFD074D9A
:104F0000074EB54209D20024013E761BB60808CDF3
:104F1000984723000134B342F9D170BD0CA80110A9
:104F200014A80110030010B5080011001B68984771
:104F300010BDC046F0B5C64600B5437D07000C0065
:104F40001600002B46D0002A17DD0B780A2B24D040
:104F500000239846012E13D001252900635C0135FA
:104F60000A2B26D0B542F8D1464509DCA419013CEC
:104F700023780D3B5A4253413B7580BCB846F0BD87
:104F80004346E018A419F11A013C3B68984723787E
:104F90000D3B5A4253413B75EFE7037D002BD7D1C0
:104FA00002210F483B689847012EDFD00123984625
:104FB000D2E7631E5B5C0D2BD4D0884504DA4346F0
:104FC000C91AE0183B689847022105483B68A84683
:104FD0009847C7E70368110020009847CDE7C0460F
:104FE00048CD0110F0B5C6460B6806000C0000B5B0
:104FF000802B06D05A1C2260E418267180BCB8466B
:10500000F0BD0F4B1D68002D16D00B1D98460D4F9F
:1050100002E02D69002D0FD02B68002BF9D03B68E2
:10502000002B01D0AB42F4D1280041462268FFF7A3
:1050300081FF2D69002DEFD101220023DBE7C0465F
:10504000889C0120949C0120F0B54546DE464E46E2
:105050005746E0B583B091461C0080460D00FDF731
:1050600045FA0023304A12184B41002B02DA012284
:105070002E4B52422E4908008A4615F071FB07005C
:105080006B1C03D1404615F089F90500002C27D090
:10509000284E294B1C68002C18D04B46002B21D1E0
:1050A000264B994602E02469002C0FD02368002B80
:1050B000F9D04B461B68002B01D09C42F3D1200055
:1050C0002A004146B0472469002CEFD1002F26D199
:1050D000280003B0F0BCBB46B246A946A046F0BDCE
:1050E000174ED6E7154B99460A239B4602E02469E2
:1050F000002CEBD02368002BF9D04B461B68002B0B
:1051000001D0A342F3D12A0041462000B0476B46AC
:105110005A462000DA71D91D0122B047E7E7504610
:1051200015F0CEFAD4E7C04640420F00FFFFFF7FE4
:10513000A8630120354F0010889C0120949C012019
:10514000254F00100A4A1368002B05D10CE01A0005
:105150001B691032002B07D08342F8D1002902D1FD
:1051600018691060196170470029FCD01060FAE7D7
:10517000889C012010B500F0F1FA10BDF0B5CE46C4
:10518000474680B583B06B460600DD1D2870FDF7ED
:10519000ADF90023194A12184B41002B02DA012203
:1051A000174B524217490800884615F0D9FA164B9A
:1051B00081461C68002C14D0144F02E02469002C96
:1051C0000FD02368002BF9D03B68002B01D09C4204
:1051D000F4D1200001222900FFF7ACFE2469002C45
:1051E000EFD14B46002B05D1300003B0C0BCB9460F
:1051F000B046F0BD404615F063FAF5E740420F00B7
:10520000FFFFFF7FA8630120889C0120949C012060
:1052100070B5040015F0C2F8012301000500012259
:105220002000FFF711FF084B1C68002C06D06368B4
:10523000002B05D098472469002CF8D1280070BDB8
:105240002469002CF3D1F9E7889C0120F0B5CE4603
:10525000474680B5A3B004000D00FDF747F90023D1
:10526000274A12184B41002B02DA0122254B5242E9
:10527000254E300015F074FA002322000193070038
:105280002B00224801A9FFF7EDFD214B80469946EE
:105290001C68019B002B1AD0002C2FD01D4D02E062
:1052A0002469002C0FD02368002BF9D02B68002B29
:1052B00001D0A342F4D12000019A02A9FFF73AFEDF
:1052C0002469002CEFD14B461C6800230193002C6D
:1052D00006D06368002B0BD098472469002CF8D1C6
:1052E000002F07D1404623B0C0BCB946B046F0BD40
:1052F0002469ECE7300015F0E3F9F3E70194EFE7F8
:1053000040420F00FFFFFF7FA8630120E54F001020
:10531000889C0120949C01200FB400B583B004A99F
:1053200001C90191FFF792FF03B008BC04B0184710
:105330007047C0460022014B1A707047CD4C0220C6
:105340004B790020FF2B0BD18B79002B08D1CB7927
:10535000012B05D1082A03D9024B8A7809301A702B
:105360007047C046CD4C02200120704710B501297E
:1053700013D112495379107909781B020343002095
:10538000994200D010BD5378012B08D0022BF9D1DF
:10539000642200210020FDF709FA0120F2E7D3780A
:1053A00091781B021943480ADB0501D401204042D1
:1053B0007F238A05D20F1940FDF780FACD4C0220D9
:1053C0000048704714CE011070B50500140001208C
:1053D000012909D153780020012B05D16379127975
:1053E0001B021343072B00D070BD21002800024A86
:1053F0009F3301F05DFAF7E76CCD011001230370D4
:10540000004870474CCD01104B780A781B021343BB
:105410008A7810B512041A43CB781B0613439622E0
:10542000D200934200D010BD002201201100404262
:10543000FDF744FA024B1860024B19607047C046F2
:10544000C08D0120C48D012010B5024B1878FCF7E7
:1054500001F810BDCE4C0220154B70B51A68002A19
:1054600022D0EFF3108172B610680028FCD0BFF391
:105470005F8F00200F4A596010701B68BFF35F8F69
:10548000186081F31088002400250B4E3078FBF75C
:10549000D5FF002804D1002400252900200070BD7C
:1054A0003078FBF7D7FFF8E7FA240025A400ECE7F3
:1054B000F43A0220D04C0220CE4C022070B50400F9
:1054C00000200E0001F012FB002834D0002001F073
:1054D00023FB00282FD0FDF709F80023174A1218E4
:1054E0004B41002B16DB164D280015F039F900282A
:1054F00021D0002001F0FAFA00280FD1012000216C
:10550000404200F009FD03246442280015F0D8F859
:10551000200070BD01220B4B5242E4E7002001F055
:10552000FBFA0028EAD021003200002001F0FEFA48
:10553000041EEAD1E7E703246442E9E740420F0092
:10554000684C0220FFFFFF7F10B5FCF7CFFF002360
:105550000D4A12184B41002B02DA01220B4B52422A
:105560000B4C200015F0FCF800280CD00120002185
:10557000404200F0D1FC002001F01CFB0028F5D1D6
:10558000200015F09DF810BD40420F00FFFFFF7F87
:10559000684C0220F8B5DE46574680B505000C0081
:1055A000FCF7A4FF0023364A12184B41002B02DA05
:1055B0000122344B5242344908008A4615F0D0F893
:1055C000002803D1C0BCBB46B246F8BD002001F0A4
:1055D0008DFA00284AD00026002C43DD2B4B9B4639
:1055E00014E0A919002001F01FFB07000120002191
:1055F000404200F091FC002001F0DCFAFCF776FF5D
:10560000224BF61918605960B4422BDD002001F0DE
:105610002BFBA71B0200B84200DD3A00002AE0D1B4
:1056200001200021404200F077FC002001F0C2FA86
:10563000002001F05BFA002814D0002001F014FBD8
:105640000028E1D1FCF752FF5B460F001A685B6847
:10565000002184460E4812184B419F4202D8D3D1F4
:105660009445D1D9504615F02BF8ABE70020002126
:10567000064B18605960504615F022F8A2E7C04664
:1056800040420F00FFFFFF7F684C02208065012031
:1056900020A1070030B52A4C85B00021200015F06C
:1056A0004FF800281CD1274B1A68002A16D0EFF3B8
:1056B000108172B610680028FCD0BFF35F8F012400
:1056C0002148596002781B68D2B20470BFF35F8F23
:1056D0000020186081F31088002A17D005B030BD73
:1056E00001200021404200F017FC002001F014FAD4
:1056F0000500200014F0E4FF002DEFD0134B1B68D1
:10570000002BEBD0124A10689847E7E7FCF7D2FB72
:105710000400FCF7EBFEFA220023920012184B4122
:10572000002B02DA01220B4B52420121029100218F
:105730000191094920000091FCF742FCCEE7C046E8
:10574000684C0220F43A0220D04C0220C08D012087
:10575000C48D0120FFFFFF7F59540010D02310B5E6
:105760001B0684B01C68FCF7A5FBFCF723FDA042D8
:1057700002D0002004B010BD294B002100201B786E
:1057800001F066FD27480368002B45D00120FCF797
:1057900001F9FF23244C254920701840FBF774FEC3
:1057A00020780121FBF738FE0520FBF75BFE00287F
:1057B00024D1082200211E48FDF7E0FEFCF77AFB09
:1057C0000400FCF793FEFA220023920012184B41CA
:1057D000002B02DA0122174B5242012102910021D3
:1057E0000191154920000091FCF7EAFB0028C0DB7D
:1057F00012480121FFF7A6FC0120BBE70120FBF7BF
:10580000D9FD0B4B01001800FCF744F900220520DC
:105810000B49FBF763FEEBE7FCF712F9B6E7C0466E
:1058200098490510684C0220CE4C02209556001075
:10583000F43A0220FFFFFF7F59540010A05D0120C1
:105840004954001000487047B0CE0110004870471E
:105850005CCE011010B5040017480378002B20D04F
:10586000002C06D1154B16484380063BFF3B0380B6
:1058700010BD052C1DD8134BA400E058124901237C
:10588000013804E001330A800231142B0DD0C25CD0
:10589000002AF7D1C022DBB25B0092000848134314
:1058A000E5E7112100F022F8DAE7CA2304489B005B
:1058B000DDE70020DCE7C046984C02200904000028
:1058C000A097012044CE0110A297012010B50248F4
:1058D00000F0E0F810BDC046DC4A022010B50822F6
:1058E0000149FDF751FE10BDDC4A022030B54B1EC8
:1058F000012900D1A7E0664A11780D092C00303447
:105900009F2900D9A2E00470012B00D1BEE00F2135
:10591000147821400C003034092900D998E04470F3
:10592000022B00D1B2E054782509290030319F2C98
:1059300000D990E08170032B00D1A7E00F21214016
:105940000C003034092900D987E0C470042B00D141
:105950009CE094782509290030319F2C00D97FE004
:105960000171052B00D191E00F2121400C00303452
:10597000092900D976E04471062B00D186E0D4785D
:105980002509290030319F2C00D96EE08171072B49
:1059900000D17BE00F2121400C003034092966D86A
:1059A000C471082B00D171E0147925092900303128
:1059B0009F2C5FD80172092B68D00F2121400C0069
:1059C0003034092958D844720A2B5FD054792509FC
:1059D000290030319F2C52D881720B2B56D00F21C9
:1059E00021400C00303409294BD8C4720C2B4DD007
:1059F00094792509290030319F2C00D90731017392
:105A00000D2B43D00F2121400C003034092901D93E
:105A100037310C0044730E2B38D0D1790C09220099
:105A200030329F2900D9073282730F2B2ED00F22DC
:105A30000A4011003731092A01D830321100C173F0
:105A4000102B23D010300023037030BD07345AE7E9
:105A500037310C0063E707316CE737310C0074E72E
:105A600007317DE737310C0085E707318EE73731A5
:105A70000C0095E707319DE737310C00A3E70731AC
:105A8000AAE737310C00C4720C2BB1D1C018DAE789
:105A9000DC4A022010B588B004000D2200216846BF
:105AA000FDF76CFD0D22002104A8FDF767FD4B23D7
:105AB0006A466846137004A90D2214F0F9FD1521F9
:105AC000082220006944FDF75FFD08B010BDC04604
:105AD000F8B500F047F90C23194DFF22AB670520FC
